{
  "contractName": "CollectionSeller",
  "abi": [
    {
      "inputs": [
        {
          "internalType": "address",
          "name": "_NFT",
          "type": "address"
        },
        {
          "internalType": "address",
          "name": "_PAYMENT",
          "type": "address"
        },
        {
          "internalType": "uint256",
          "name": "_PRICE",
          "type": "uint256"
        },
        {
          "internalType": "uint256",
          "name": "_STARTWHEN",
          "type": "uint256"
        },
        {
          "internalType": "uint256",
          "name": "_STOPWHEN",
          "type": "uint256"
        }
      ],
      "stateMutability": "nonpayable",
      "type": "constructor"
    },
    {
      "anonymous": false,
      "inputs": [
        {
          "indexed": true,
          "internalType": "address",
          "name": "previousOwner",
          "type": "address"
        },
        {
          "indexed": true,
          "internalType": "address",
          "name": "newOwner",
          "type": "address"
        }
      ],
      "name": "OwnershipTransferred",
      "type": "event"
    },
    {
      "anonymous": false,
      "inputs": [
        {
          "indexed": false,
          "internalType": "address",
          "name": "user",
          "type": "address"
        },
        {
          "indexed": false,
          "internalType": "uint256",
          "name": "amount",
          "type": "uint256"
        }
      ],
      "name": "bought",
      "type": "event"
    },
    {
      "inputs": [],
      "name": "MINTER",
      "outputs": [
        {
          "internalType": "address",
          "name": "",
          "type": "address"
        }
      ],
      "stateMutability": "view",
      "type": "function",
      "constant": true
    },
    {
      "inputs": [],
      "name": "NFT",
      "outputs": [
        {
          "internalType": "contract IERC1155",
          "name": "",
          "type": "address"
        }
      ],
      "stateMutability": "view",
      "type": "function",
      "constant": true
    },
    {
      "inputs": [],
      "name": "PAYMENT",
      "outputs": [
        {
          "internalType": "contract IERC20",
          "name": "",
          "type": "address"
        }
      ],
      "stateMutability": "view",
      "type": "function",
      "constant": true
    },
    {
      "inputs": [],
      "name": "PRICE",
      "outputs": [
        {
          "internalType": "uint256",
          "name": "",
          "type": "uint256"
        }
      ],
      "stateMutability": "view",
      "type": "function",
      "constant": true
    },
    {
      "inputs": [],
      "name": "STARTWHEN",
      "outputs": [
        {
          "internalType": "uint256",
          "name": "",
          "type": "uint256"
        }
      ],
      "stateMutability": "view",
      "type": "function",
      "constant": true
    },
    {
      "inputs": [],
      "name": "STOPWHEN",
      "outputs": [
        {
          "internalType": "uint256",
          "name": "",
          "type": "uint256"
        }
      ],
      "stateMutability": "view",
      "type": "function",
      "constant": true
    },
    {
      "inputs": [
        {
          "internalType": "uint256",
          "name": "",
          "type": "uint256"
        }
      ],
      "name": "amountBytokenId",
      "outputs": [
        {
          "internalType": "uint256",
          "name": "",
          "type": "uint256"
        }
      ],
      "stateMutability": "view",
      "type": "function",
      "constant": true
    },
    {
      "inputs": [],
      "name": "lastRegisterId",
      "outputs": [
        {
          "internalType": "uint256",
          "name": "",
          "type": "uint256"
        }
      ],
      "stateMutability": "view",
      "type": "function",
      "constant": true
    },
    {
      "inputs": [],
      "name": "lastSaleId",
      "outputs": [
        {
          "internalType": "uint256",
          "name": "",
          "type": "uint256"
        }
      ],
      "stateMutability": "view",
      "type": "function",
      "constant": true
    },
    {
      "inputs": [],
      "name": "limitPerSale",
      "outputs": [
        {
          "internalType": "uint256",
          "name": "",
          "type": "uint256"
        }
      ],
      "stateMutability": "view",
      "type": "function",
      "constant": true
    },
    {
      "inputs": [],
      "name": "owner",
      "outputs": [
        {
          "internalType": "address",
          "name": "",
          "type": "address"
        }
      ],
      "stateMutability": "view",
      "type": "function",
      "constant": true
    },
    {
      "inputs": [],
      "name": "renounceOwnership",
      "outputs": [],
      "stateMutability": "nonpayable",
      "type": "function"
    },
    {
      "inputs": [
        {
          "internalType": "uint256",
          "name": "",
          "type": "uint256"
        }
      ],
      "name": "tokenIdById",
      "outputs": [
        {
          "internalType": "uint256",
          "name": "",
          "type": "uint256"
        }
      ],
      "stateMutability": "view",
      "type": "function",
      "constant": true
    },
    {
      "inputs": [
        {
          "internalType": "address",
          "name": "newOwner",
          "type": "address"
        }
      ],
      "name": "transferOwnership",
      "outputs": [],
      "stateMutability": "nonpayable",
      "type": "function"
    },
    {
      "inputs": [
        {
          "internalType": "uint256",
          "name": "tokenId",
          "type": "uint256"
        },
        {
          "internalType": "uint256",
          "name": "amount",
          "type": "uint256"
        }
      ],
      "name": "buy",
      "outputs": [],
      "stateMutability": "payable",
      "type": "function",
      "payable": true
    },
    {
      "inputs": [
        {
          "internalType": "uint256",
          "name": "tokenId",
          "type": "uint256"
        },
        {
          "internalType": "uint256",
          "name": "amount",
          "type": "uint256"
        }
      ],
      "name": "register",
      "outputs": [],
      "stateMutability": "nonpayable",
      "type": "function"
    },
    {
      "inputs": [
        {
          "internalType": "uint256",
          "name": "tokenId",
          "type": "uint256"
        },
        {
          "internalType": "uint256",
          "name": "amount",
          "type": "uint256"
        },
        {
          "internalType": "uint256",
          "name": "id",
          "type": "uint256"
        }
      ],
      "name": "registerById",
      "outputs": [],
      "stateMutability": "nonpayable",
      "type": "function"
    },
    {
      "inputs": [
        {
          "internalType": "uint256",
          "name": "amount",
          "type": "uint256"
        }
      ],
      "name": "withdraw",
      "outputs": [],
      "stateMutability": "nonpayable",
      "type": "function"
    },
    {
      "inputs": [
        {
          "internalType": "uint256",
          "name": "id",
          "type": "uint256"
        }
      ],
      "name": "setRegisterId",
      "outputs": [],
      "stateMutability": "nonpayable",
      "type": "function"
    },
    {
      "inputs": [
        {
          "internalType": "uint256",
          "name": "id",
          "type": "uint256"
        }
      ],
      "name": "setLastSaleId",
      "outputs": [],
      "stateMutability": "nonpayable",
      "type": "function"
    },
    {
      "inputs": [
        {
          "internalType": "uint256",
          "name": "amount",
          "type": "uint256"
        }
      ],
      "name": "setLimitPerSale",
      "outputs": [],
      "stateMutability": "nonpayable",
      "type": "function"
    },
    {
      "inputs": [
        {
          "internalType": "uint256",
          "name": "start",
          "type": "uint256"
        },
        {
          "internalType": "uint256",
          "name": "end",
          "type": "uint256"
        }
      ],
      "name": "setPeriod",
      "outputs": [],
      "stateMutability": "nonpayable",
      "type": "function"
    }
  ],
  "bytecode": "0x608060405260006003556000600455600060055560006007556000600855600a6009553480156200002f57600080fd5b5060405162001db438038062001db48339818101604052810190620000559190620002c9565b62000075620000696200015860201b60201c565b6200016060201b60201c565b84600160006101000a81548173ffffffffffffffffffffffffffffffffffffffff021916908373ffffffffffffffffffffffffffffffffffffffff16021790555083600260006101000a81548173ffffffffffffffffffffffffffffffffffffffff021916908373ffffffffffffffffffffffffffffffffffffffff16021790555082600381905550816004819055508060058190555033600660006101000a81548173ffffffffffffffffffffffffffffffffffffffff021916908373ffffffffffffffffffffffffffffffffffffffff160217905550505050505062000351565b600033905090565b60008060009054906101000a900473ffffffffffffffffffffffffffffffffffffffff169050816000806101000a81548173ffffffffffffffffffffffffffffffffffffffff021916908373ffffffffffffffffffffffffffffffffffffffff1602179055508173ffffffffffffffffffffffffffffffffffffffff168173ffffffffffffffffffffffffffffffffffffffff167f8be0079c531659141344cd1fd0a4f28419497f9722a3daafe3b4186f6b6457e060405160405180910390a35050565b600080fd5b600073ffffffffffffffffffffffffffffffffffffffff82169050919050565b6000620002568262000229565b9050919050565b620002688162000249565b81146200027457600080fd5b50565b60008151905062000288816200025d565b92915050565b6000819050919050565b620002a3816200028e565b8114620002af57600080fd5b50565b600081519050620002c38162000298565b92915050565b600080600080600060a08688031215620002e857620002e762000224565b5b6000620002f88882890162000277565b95505060206200030b8882890162000277565b94505060406200031e88828901620002b2565b93505060606200033188828901620002b2565b92505060806200034488828901620002b2565b9150509295509295909350565b611a5380620003616000396000f3fe6080604052600436106101355760003560e01c80638d859f3e116100ab578063d6febde81161006f578063d6febde8146103dc578063debe60b7146103f8578063e58e387614610421578063f2fde38b1461044c578063f556a98414610475578063fe6d8124146104b257610135565b80638d859f3e146103095780638da5cb5b14610334578063c48424321461035f578063cbdeff8f1461038a578063d66d6c10146103b357610135565b80634a4a5181116100fd5780634a4a51811461020b578063598460ef14610234578063715018a6146102715780637c0b8de21461028857806382d4e1e6146102b3578063883b137f146102de57610135565b806302b863611461013a57806303c5b1dc1461016557806322821c791461018e5780632a2f9721146101b75780632e1a7d4d146101e2575b600080fd5b34801561014657600080fd5b5061014f6104dd565b60405161015c9190611183565b60405180910390f35b34801561017157600080fd5b5061018c600480360381019061018791906111cf565b6104e3565b005b34801561019a57600080fd5b506101b560048036038101906101b0919061120f565b610571565b005b3480156101c357600080fd5b506101cc6105f7565b6040516101d99190611183565b60405180910390f35b3480156101ee57600080fd5b506102096004803603810190610204919061120f565b6105fd565b005b34801561021757600080fd5b50610232600480360381019061022d919061120f565b61071d565b005b34801561024057600080fd5b5061025b6004803603810190610256919061120f565b6107a3565b6040516102689190611183565b60405180910390f35b34801561027d57600080fd5b506102866107bb565b005b34801561029457600080fd5b5061029d610843565b6040516102aa91906112bb565b60405180910390f35b3480156102bf57600080fd5b506102c8610869565b6040516102d59190611183565b60405180910390f35b3480156102ea57600080fd5b506102f361086f565b60405161030091906112f7565b60405180910390f35b34801561031557600080fd5b5061031e610895565b60405161032b9190611183565b60405180910390f35b34801561034057600080fd5b5061034961089b565b6040516103569190611333565b60405180910390f35b34801561036b57600080fd5b506103746108c4565b6040516103819190611183565b60405180910390f35b34801561039657600080fd5b506103b160048036038101906103ac919061134e565b6108ca565b005b3480156103bf57600080fd5b506103da60048036038101906103d591906111cf565b6109ad565b005b6103f660048036038101906103f191906111cf565b610a73565b005b34801561040457600080fd5b5061041f600480360381019061041a919061120f565b610dfa565b005b34801561042d57600080fd5b50610436610e80565b6040516104439190611183565b60405180910390f35b34801561045857600080fd5b50610473600480360381019061046e91906113cd565b610e86565b005b34801561048157600080fd5b5061049c6004803603810190610497919061120f565b610f7e565b6040516104a99190611183565b60405180910390f35b3480156104be57600080fd5b506104c7610f96565b6040516104d49190611333565b60405180910390f35b60095481565b6104eb610fbc565b73ffffffffffffffffffffffffffffffffffffffff1661050961089b565b73ffffffffffffffffffffffffffffffffffffffff161461055f576040517f08c379a000000000000000000000000000000000000000000000000000000000815260040161055690611457565b60405180910390fd5b81600481905550806005819055505050565b610579610fbc565b73ffffffffffffffffffffffffffffffffffffffff1661059761089b565b73ffffffffffffffffffffffffffffffffffffffff16146105ed576040517f08c379a00000000000000000000000000000000000000000000000000000000081526004016105e490611457565b60405180910390fd5b8060078190555050565b60075481565b610605610fbc565b73ffffffffffffffffffffffffffffffffffffffff1661062361089b565b73ffffffffffffffffffffffffffffffffffffffff1614610679576040517f08c379a000000000000000000000000000000000000000000000000000000000815260040161067090611457565b60405180910390fd5b600260009054906101000a900473ffffffffffffffffffffffffffffffffffffffff1673ffffffffffffffffffffffffffffffffffffffff1663a9059cbb33836040518363ffffffff1660e01b81526004016106d6929190611477565b6020604051808303816000875af11580156106f5573d6000803e3d6000fd5b505050506040513d601f19601f8201168201806040525081019061071991906114d8565b5050565b610725610fbc565b73ffffffffffffffffffffffffffffffffffffffff1661074361089b565b73ffffffffffffffffffffffffffffffffffffffff1614610799576040517f08c379a000000000000000000000000000000000000000000000000000000000815260040161079090611457565b60405180910390fd5b8060088190555050565b600a6020528060005260406000206000915090505481565b6107c3610fbc565b73ffffffffffffffffffffffffffffffffffffffff166107e161089b565b73ffffffffffffffffffffffffffffffffffffffff1614610837576040517f08c379a000000000000000000000000000000000000000000000000000000000815260040161082e90611457565b60405180910390fd5b6108416000610fc4565b565b600160009054906101000a900473ffffffffffffffffffffffffffffffffffffffff1681565b60045481565b600260009054906101000a900473ffffffffffffffffffffffffffffffffffffffff1681565b60035481565b60008060009054906101000a900473ffffffffffffffffffffffffffffffffffffffff16905090565b60055481565b6108d2610fbc565b73ffffffffffffffffffffffffffffffffffffffff166108f061089b565b73ffffffffffffffffffffffffffffffffffffffff1614610946576040517f08c379a000000000000000000000000000000000000000000000000000000000815260040161093d90611457565b60405180910390fd5b6000600a60008381526020019081526020016000205414156109785760016008546109719190611534565b6008819055505b82600a60008381526020019081526020016000208190555081600b600085815260200190815260200160002081905550505050565b6109b5610fbc565b73ffffffffffffffffffffffffffffffffffffffff166109d361089b565b73ffffffffffffffffffffffffffffffffffffffff1614610a29576040517f08c379a0000000000000000000000000000000000000000000000000000000008152600401610a2090611457565b60405180910390fd5b81600a600060086000815480929190610a419061158a565b9190505581526020019081526020016000208190555080600b6000848152602001908152602001600020819055505050565b6004544210158015610a8757506005544211155b610ac6576040517f08c379a0000000000000000000000000000000000000000000000000000000008152600401610abd90611645565b60405180910390fd5b600b600083815260200190815260200160002054811115610b1c576040517f08c379a0000000000000000000000000000000000000000000000000000000008152600401610b13906116b1565b60405180910390fd5b600954811115610b61576040517f08c379a0000000000000000000000000000000000000000000000000000000008152600401610b5890611743565b60405180910390fd5b6000600260009054906101000a900473ffffffffffffffffffffffffffffffffffffffff1673ffffffffffffffffffffffffffffffffffffffff166370a08231306040518263ffffffff1660e01b8152600401610bbe9190611333565b602060405180830381865afa158015610bdb573d6000803e3d6000fd5b505050506040513d601f19601f82011682018060405250810190610bff9190611778565b9050600260009054906101000a900473ffffffffffffffffffffffffffffffffffffffff1673ffffffffffffffffffffffffffffffffffffffff166323b872dd333085600354610c4f91906117a5565b6040518463ffffffff1660e01b8152600401610c6d939291906117ff565b6020604051808303816000875af1158015610c8c573d6000803e3d6000fd5b505050506040513d601f19601f82011682018060405250810190610cb091906114d8565b506000600260009054906101000a900473ffffffffffffffffffffffffffffffffffffffff1673ffffffffffffffffffffffffffffffffffffffff166370a08231306040518263ffffffff1660e01b8152600401610d0e9190611333565b602060405180830381865afa158015610d2b573d6000803e3d6000fd5b505050506040513d601f19601f82011682018060405250810190610d4f9190611778565b905060008282610d5f9190611836565b905083600354610d6f91906117a5565b8114610db0576040517f08c379a0000000000000000000000000000000000000000000000000000000008152600401610da7906118b6565b60405180910390fd5b610dba3385611088565b7f74f5fd5e58c3ec944ab8dbf077bf027876847cea1e7e828dd2a670d291b857fb3385604051610deb929190611477565b60405180910390a15050505050565b610e02610fbc565b73ffffffffffffffffffffffffffffffffffffffff16610e2061089b565b73ffffffffffffffffffffffffffffffffffffffff1614610e76576040517f08c379a0000000000000000000000000000000000000000000000000000000008152600401610e6d90611457565b60405180910390fd5b8060098190555050565b60085481565b610e8e610fbc565b73ffffffffffffffffffffffffffffffffffffffff16610eac61089b565b73ffffffffffffffffffffffffffffffffffffffff1614610f02576040517f08c379a0000000000000000000000000000000000000000000000000000000008152600401610ef990611457565b60405180910390fd5b600073ffffffffffffffffffffffffffffffffffffffff168173ffffffffffffffffffffffffffffffffffffffff161415610f72576040517f08c379a0000000000000000000000000000000000000000000000000000000008152600401610f6990611948565b60405180910390fd5b610f7b81610fc4565b50565b600b6020528060005260406000206000915090505481565b600660009054906101000a900473ffffffffffffffffffffffffffffffffffffffff1681565b600033905090565b60008060009054906101000a900473ffffffffffffffffffffffffffffffffffffffff169050816000806101000a81548173ffffffffffffffffffffffffffffffffffffffff021916908373ffffffffffffffffffffffffffffffffffffffff1602179055508173ffffffffffffffffffffffffffffffffffffffff168173ffffffffffffffffffffffffffffffffffffffff167f8be0079c531659141344cd1fd0a4f28419497f9722a3daafe3b4186f6b6457e060405160405180910390a35050565b600160009054906101000a900473ffffffffffffffffffffffffffffffffffffffff1673ffffffffffffffffffffffffffffffffffffffff1663f242432a600660009054906101000a900473ffffffffffffffffffffffffffffffffffffffff1684600a6000600760008154809291906111019061158a565b91905055815260200190815260200160002054856040518563ffffffff1660e01b815260040161113494939291906119c5565b600060405180830381600087803b15801561114e57600080fd5b505af1158015611162573d6000803e3d6000fd5b505050505050565b6000819050919050565b61117d8161116a565b82525050565b60006020820190506111986000830184611174565b92915050565b600080fd5b6111ac8161116a565b81146111b757600080fd5b50565b6000813590506111c9816111a3565b92915050565b600080604083850312156111e6576111e561119e565b5b60006111f4858286016111ba565b9250506020611205858286016111ba565b9150509250929050565b6000602082840312156112255761122461119e565b5b6000611233848285016111ba565b91505092915050565b600073ffffffffffffffffffffffffffffffffffffffff82169050919050565b6000819050919050565b600061128161127c6112778461123c565b61125c565b61123c565b9050919050565b600061129382611266565b9050919050565b60006112a582611288565b9050919050565b6112b58161129a565b82525050565b60006020820190506112d060008301846112ac565b92915050565b60006112e182611288565b9050919050565b6112f1816112d6565b82525050565b600060208201905061130c60008301846112e8565b92915050565b600061131d8261123c565b9050919050565b61132d81611312565b82525050565b60006020820190506113486000830184611324565b92915050565b6000806000606084860312156113675761136661119e565b5b6000611375868287016111ba565b9350506020611386868287016111ba565b9250506040611397868287016111ba565b9150509250925092565b6113aa81611312565b81146113b557600080fd5b50565b6000813590506113c7816113a1565b92915050565b6000602082840312156113e3576113e261119e565b5b60006113f1848285016113b8565b91505092915050565b600082825260208201905092915050565b7f4f776e61626c653a2063616c6c6572206973206e6f7420746865206f776e6572600082015250565b60006114416020836113fa565b915061144c8261140b565b602082019050919050565b6000602082019050818103600083015261147081611434565b9050919050565b600060408201905061148c6000830185611324565b6114996020830184611174565b9392505050565b60008115159050919050565b6114b5816114a0565b81146114c057600080fd5b50565b6000815190506114d2816114ac565b92915050565b6000602082840312156114ee576114ed61119e565b5b60006114fc848285016114c3565b91505092915050565b7f4e487b7100000000000000000000000000000000000000000000000000000000600052601160045260246000fd5b600061153f8261116a565b915061154a8361116a565b9250827fffffffffffffffffffffffffffffffffffffffffffffffffffffffffffffffff0382111561157f5761157e611505565b5b828201905092915050565b60006115958261116a565b91507fffffffffffffffffffffffffffffffffffffffffffffffffffffffffffffffff8214156115c8576115c7611505565b5b600182019050919050565b7f5468652073616c6520686173206e6f74207374617274656420796574206f722060008201527f616c726561647920656e64000000000000000000000000000000000000000000602082015250565b600061162f602b836113fa565b915061163a826115d3565b604082019050919050565b6000602082019050818103600083015261165e81611622565b9050919050565b7f546865726520617265206e6f206d6f726520746f6b656e7320746f2062757900600082015250565b600061169b601f836113fa565b91506116a682611665565b602082019050919050565b600060208201905081810360008301526116ca8161168e565b9050919050565b7f596f752063616e277420627579206174206d6f7374206c696d6974656420616d60008201527f6f756e7420617420612074696d65000000000000000000000000000000000000602082015250565b600061172d602e836113fa565b9150611738826116d1565b604082019050919050565b6000602082019050818103600083015261175c81611720565b9050919050565b600081519050611772816111a3565b92915050565b60006020828403121561178e5761178d61119e565b5b600061179c84828501611763565b91505092915050565b60006117b08261116a565b91506117bb8361116a565b9250817fffffffffffffffffffffffffffffffffffffffffffffffffffffffffffffffff04831182151516156117f4576117f3611505565b5b828202905092915050565b60006060820190506118146000830186611324565b6118216020830185611324565b61182e6040830184611174565b949350505050565b60006118418261116a565b915061184c8361116a565b92508282101561185f5761185e611505565b5b828203905092915050565b7f596f75206d757374207061792074686520636f727265637420616d6f756e7400600082015250565b60006118a0601f836113fa565b91506118ab8261186a565b602082019050919050565b600060208201905081810360008301526118cf81611893565b9050919050565b7f4f776e61626c653a206e6577206f776e657220697320746865207a65726f206160008201527f6464726573730000000000000000000000000000000000000000000000000000602082015250565b60006119326026836113fa565b915061193d826118d6565b604082019050919050565b6000602082019050818103600083015261196181611925565b9050919050565b600082825260208201905092915050565b7f3078300000000000000000000000000000000000000000000000000000000000600082015250565b60006119af600383611968565b91506119ba82611979565b602082019050919050565b600060a0820190506119da6000830187611324565b6119e76020830186611324565b6119f46040830185611174565b611a016060830184611174565b8181036080830152611a12816119a2565b90509594505050505056fea26469706673582212200a664b02d92ea5cc8dde6edd46a17dc9823559a037d5726ea7514200dbe5251c64736f6c634300080a0033",
  "immutableReferences": {},
  "source": "// SPDX-License-Identifier: MIT\npragma solidity ^0.8.0;\n\nimport \"@openzeppelin/contracts/access/Ownable.sol\";\nimport \"@openzeppelin/contracts/token/ERC20/IERC20.sol\";\nimport \"@openzeppelin/contracts/token/ERC1155/IERC1155.sol\";\n\n//   \n// 1. hNFT  \n// 2.  \n\ncontract CollectionSeller is Ownable {\n  IERC1155 public NFT;\n  IERC20 public PAYMENT;\n  uint256 public PRICE = 0;\n  uint256 public STARTWHEN = 0; // FIXME this should be a timestamp\n  uint256 public STOPWHEN = 0; // FIXME this should be a timestamp\n  address public MINTER;\n\n  uint256 public lastSaleId = 0;\n  uint256 public lastRegisterId = 0;\n  uint256 public limitPerSale = 10;\n  mapping(uint256 => uint256) public tokenIdById;\n  mapping(uint256 => uint256) public amountBytokenId;\n\n  event bought(address user, uint256 amount);\n\n  constructor(\n    address _NFT,\n    address _PAYMENT,\n    uint256 _PRICE,\n    uint256 _STARTWHEN,\n    uint256 _STOPWHEN\n  ) public {\n    NFT = IERC1155(_NFT);\n    PAYMENT = IERC20(_PAYMENT);\n    PRICE = _PRICE;\n    STARTWHEN = _STARTWHEN;\n    STOPWHEN = _STOPWHEN;\n    MINTER = msg.sender;\n  }\n\n  function buy(uint256 tokenId, uint256 amount) public payable isOpen {\n    require(\n      amount <= amountBytokenId[tokenId],\n      \"There are no more tokens to buy\"\n    );\n    require(\n      amount <= limitPerSale,\n      \"You can't buy at most limited amount at a time\"\n    );\n\n    uint256 _before = PAYMENT.balanceOf(address(this));\n    PAYMENT.transferFrom(msg.sender, address(this), PRICE * amount);\n    uint256 _after = PAYMENT.balanceOf(address(this));\n    uint256 value = _after - _before;\n\n    require(value == PRICE * amount, \"You must pay the correct amount\");\n\n    _buy(msg.sender, amount);\n\n    emit bought(msg.sender, amount);\n  }\n\n  function register(uint256 tokenId, uint256 amount) public onlyOwner {\n    tokenIdById[lastRegisterId++] = tokenId;\n    amountBytokenId[tokenId] = amount;\n  }\n\n  function registerById(\n    uint256 tokenId,\n    uint256 amount,\n    uint256 id\n  ) public onlyOwner {\n    if (tokenIdById[id] == 0) {\n      lastRegisterId = lastRegisterId + 1;\n    }\n    tokenIdById[id] = tokenId;\n    amountBytokenId[tokenId] = amount;\n  }\n\n  function _buy(address account, uint256 amount) internal {\n    NFT.safeTransferFrom(\n      MINTER,\n      account,\n      tokenIdById[lastSaleId++],\n      amount,\n      \"0x0\"\n    );\n  }\n\n  function withdraw(uint256 amount) public onlyOwner {\n    PAYMENT.transfer(msg.sender, amount);\n  }\n\n  function setRegisterId(uint256 id) public onlyOwner {\n    lastRegisterId = id;\n  }\n\n  function setLastSaleId(uint256 id) public onlyOwner {\n    lastSaleId = id;\n  }\n\n  function setLimitPerSale(uint256 amount) public onlyOwner {\n    limitPerSale = amount;\n  }\n\n  function setPeriod(uint256 start, uint256 end) public onlyOwner {\n    STARTWHEN = start;\n    STOPWHEN = end;\n  }\n\n  modifier isOpen() {\n    require(\n      block.timestamp >= STARTWHEN && block.timestamp <= STOPWHEN,\n      \"The sale has not started yet or already end\"\n    );\n    _;\n  }\n}\n",
  "sourcePath": "/Users/humblefirm/Github/artb/contracts/CollectionSeller.sol",
  "compiler": {
    "name": "solc",
    "version": "0.8.10+commit.fc410830.Emscripten.clang"
  },
  "schemaVersion": "3.4.3",
  "updatedAt": "2021-11-14T21:28:19.111Z",
  "networkType": "ethereum",
  "devdoc": {
    "kind": "dev",
    "methods": {
      "owner()": {
        "details": "Returns the address of the current owner."
      },
      "renounceOwnership()": {
        "details": "Leaves the contract without owner. It will not be possible to call `onlyOwner` functions anymore. Can only be called by the current owner. NOTE: Renouncing ownership will leave the contract without an owner, thereby removing any functionality that is only available to the owner."
      },
      "transferOwnership(address)": {
        "details": "Transfers ownership of the contract to a new account (`newOwner`). Can only be called by the current owner."
      }
    },
    "version": 1
  },
  "userdoc": {
    "kind": "user",
    "methods": {},
    "version": 1
  }
}