{
  "contractName": "ArtbCollection",
  "abi": [
    {
      "inputs": [],
      "stateMutability": "nonpayable",
      "type": "constructor"
    },
    {
      "anonymous": false,
      "inputs": [
        {
          "indexed": true,
          "internalType": "address",
          "name": "account",
          "type": "address"
        },
        {
          "indexed": true,
          "internalType": "address",
          "name": "operator",
          "type": "address"
        },
        {
          "indexed": false,
          "internalType": "bool",
          "name": "approved",
          "type": "bool"
        }
      ],
      "name": "ApprovalForAll",
      "type": "event"
    },
    {
      "anonymous": false,
      "inputs": [
        {
          "indexed": true,
          "internalType": "address",
          "name": "previousOwner",
          "type": "address"
        },
        {
          "indexed": true,
          "internalType": "address",
          "name": "newOwner",
          "type": "address"
        }
      ],
      "name": "OwnershipTransferred",
      "type": "event"
    },
    {
      "anonymous": false,
      "inputs": [
        {
          "indexed": false,
          "internalType": "address",
          "name": "account",
          "type": "address"
        }
      ],
      "name": "Paused",
      "type": "event"
    },
    {
      "anonymous": false,
      "inputs": [
        {
          "indexed": true,
          "internalType": "bytes32",
          "name": "role",
          "type": "bytes32"
        },
        {
          "indexed": true,
          "internalType": "bytes32",
          "name": "previousAdminRole",
          "type": "bytes32"
        },
        {
          "indexed": true,
          "internalType": "bytes32",
          "name": "newAdminRole",
          "type": "bytes32"
        }
      ],
      "name": "RoleAdminChanged",
      "type": "event"
    },
    {
      "anonymous": false,
      "inputs": [
        {
          "indexed": true,
          "internalType": "bytes32",
          "name": "role",
          "type": "bytes32"
        },
        {
          "indexed": true,
          "internalType": "address",
          "name": "account",
          "type": "address"
        },
        {
          "indexed": true,
          "internalType": "address",
          "name": "sender",
          "type": "address"
        }
      ],
      "name": "RoleGranted",
      "type": "event"
    },
    {
      "anonymous": false,
      "inputs": [
        {
          "indexed": true,
          "internalType": "bytes32",
          "name": "role",
          "type": "bytes32"
        },
        {
          "indexed": true,
          "internalType": "address",
          "name": "account",
          "type": "address"
        },
        {
          "indexed": true,
          "internalType": "address",
          "name": "sender",
          "type": "address"
        }
      ],
      "name": "RoleRevoked",
      "type": "event"
    },
    {
      "anonymous": false,
      "inputs": [
        {
          "indexed": true,
          "internalType": "address",
          "name": "operator",
          "type": "address"
        },
        {
          "indexed": true,
          "internalType": "address",
          "name": "from",
          "type": "address"
        },
        {
          "indexed": true,
          "internalType": "address",
          "name": "to",
          "type": "address"
        },
        {
          "indexed": false,
          "internalType": "uint256[]",
          "name": "ids",
          "type": "uint256[]"
        },
        {
          "indexed": false,
          "internalType": "uint256[]",
          "name": "values",
          "type": "uint256[]"
        }
      ],
      "name": "TransferBatch",
      "type": "event"
    },
    {
      "anonymous": false,
      "inputs": [
        {
          "indexed": true,
          "internalType": "address",
          "name": "operator",
          "type": "address"
        },
        {
          "indexed": true,
          "internalType": "address",
          "name": "from",
          "type": "address"
        },
        {
          "indexed": true,
          "internalType": "address",
          "name": "to",
          "type": "address"
        },
        {
          "indexed": false,
          "internalType": "uint256",
          "name": "id",
          "type": "uint256"
        },
        {
          "indexed": false,
          "internalType": "uint256",
          "name": "value",
          "type": "uint256"
        }
      ],
      "name": "TransferSingle",
      "type": "event"
    },
    {
      "anonymous": false,
      "inputs": [
        {
          "indexed": false,
          "internalType": "string",
          "name": "value",
          "type": "string"
        },
        {
          "indexed": true,
          "internalType": "uint256",
          "name": "id",
          "type": "uint256"
        }
      ],
      "name": "URI",
      "type": "event"
    },
    {
      "anonymous": false,
      "inputs": [
        {
          "indexed": false,
          "internalType": "address",
          "name": "account",
          "type": "address"
        }
      ],
      "name": "Unpaused",
      "type": "event"
    },
    {
      "inputs": [],
      "name": "DEFAULT_ADMIN_ROLE",
      "outputs": [
        {
          "internalType": "bytes32",
          "name": "",
          "type": "bytes32"
        }
      ],
      "stateMutability": "view",
      "type": "function"
    },
    {
      "inputs": [],
      "name": "MINTER_ROLE",
      "outputs": [
        {
          "internalType": "bytes32",
          "name": "",
          "type": "bytes32"
        }
      ],
      "stateMutability": "view",
      "type": "function"
    },
    {
      "inputs": [],
      "name": "PAUSER_ROLE",
      "outputs": [
        {
          "internalType": "bytes32",
          "name": "",
          "type": "bytes32"
        }
      ],
      "stateMutability": "view",
      "type": "function"
    },
    {
      "inputs": [
        {
          "internalType": "address",
          "name": "account",
          "type": "address"
        },
        {
          "internalType": "uint256",
          "name": "id",
          "type": "uint256"
        }
      ],
      "name": "balanceOf",
      "outputs": [
        {
          "internalType": "uint256",
          "name": "",
          "type": "uint256"
        }
      ],
      "stateMutability": "view",
      "type": "function"
    },
    {
      "inputs": [
        {
          "internalType": "address[]",
          "name": "accounts",
          "type": "address[]"
        },
        {
          "internalType": "uint256[]",
          "name": "ids",
          "type": "uint256[]"
        }
      ],
      "name": "balanceOfBatch",
      "outputs": [
        {
          "internalType": "uint256[]",
          "name": "",
          "type": "uint256[]"
        }
      ],
      "stateMutability": "view",
      "type": "function"
    },
    {
      "inputs": [
        {
          "internalType": "address",
          "name": "account",
          "type": "address"
        },
        {
          "internalType": "uint256",
          "name": "id",
          "type": "uint256"
        },
        {
          "internalType": "uint256",
          "name": "value",
          "type": "uint256"
        }
      ],
      "name": "burn",
      "outputs": [],
      "stateMutability": "nonpayable",
      "type": "function"
    },
    {
      "inputs": [
        {
          "internalType": "address",
          "name": "account",
          "type": "address"
        },
        {
          "internalType": "uint256[]",
          "name": "ids",
          "type": "uint256[]"
        },
        {
          "internalType": "uint256[]",
          "name": "values",
          "type": "uint256[]"
        }
      ],
      "name": "burnBatch",
      "outputs": [],
      "stateMutability": "nonpayable",
      "type": "function"
    },
    {
      "inputs": [
        {
          "internalType": "bytes32",
          "name": "role",
          "type": "bytes32"
        }
      ],
      "name": "getRoleAdmin",
      "outputs": [
        {
          "internalType": "bytes32",
          "name": "",
          "type": "bytes32"
        }
      ],
      "stateMutability": "view",
      "type": "function"
    },
    {
      "inputs": [
        {
          "internalType": "bytes32",
          "name": "role",
          "type": "bytes32"
        },
        {
          "internalType": "uint256",
          "name": "index",
          "type": "uint256"
        }
      ],
      "name": "getRoleMember",
      "outputs": [
        {
          "internalType": "address",
          "name": "",
          "type": "address"
        }
      ],
      "stateMutability": "view",
      "type": "function"
    },
    {
      "inputs": [
        {
          "internalType": "bytes32",
          "name": "role",
          "type": "bytes32"
        }
      ],
      "name": "getRoleMemberCount",
      "outputs": [
        {
          "internalType": "uint256",
          "name": "",
          "type": "uint256"
        }
      ],
      "stateMutability": "view",
      "type": "function"
    },
    {
      "inputs": [
        {
          "internalType": "bytes32",
          "name": "role",
          "type": "bytes32"
        },
        {
          "internalType": "address",
          "name": "account",
          "type": "address"
        }
      ],
      "name": "grantRole",
      "outputs": [],
      "stateMutability": "nonpayable",
      "type": "function"
    },
    {
      "inputs": [
        {
          "internalType": "bytes32",
          "name": "role",
          "type": "bytes32"
        },
        {
          "internalType": "address",
          "name": "account",
          "type": "address"
        }
      ],
      "name": "hasRole",
      "outputs": [
        {
          "internalType": "bool",
          "name": "",
          "type": "bool"
        }
      ],
      "stateMutability": "view",
      "type": "function"
    },
    {
      "inputs": [
        {
          "internalType": "address",
          "name": "account",
          "type": "address"
        },
        {
          "internalType": "address",
          "name": "operator",
          "type": "address"
        }
      ],
      "name": "isApprovedForAll",
      "outputs": [
        {
          "internalType": "bool",
          "name": "",
          "type": "bool"
        }
      ],
      "stateMutability": "view",
      "type": "function"
    },
    {
      "inputs": [
        {
          "internalType": "address",
          "name": "to",
          "type": "address"
        },
        {
          "internalType": "uint256",
          "name": "id",
          "type": "uint256"
        },
        {
          "internalType": "uint256",
          "name": "amount",
          "type": "uint256"
        },
        {
          "internalType": "bytes",
          "name": "data",
          "type": "bytes"
        }
      ],
      "name": "mint",
      "outputs": [],
      "stateMutability": "nonpayable",
      "type": "function"
    },
    {
      "inputs": [
        {
          "internalType": "address",
          "name": "to",
          "type": "address"
        },
        {
          "internalType": "uint256[]",
          "name": "ids",
          "type": "uint256[]"
        },
        {
          "internalType": "uint256[]",
          "name": "amounts",
          "type": "uint256[]"
        },
        {
          "internalType": "bytes",
          "name": "data",
          "type": "bytes"
        }
      ],
      "name": "mintBatch",
      "outputs": [],
      "stateMutability": "nonpayable",
      "type": "function"
    },
    {
      "inputs": [],
      "name": "owner",
      "outputs": [
        {
          "internalType": "address",
          "name": "",
          "type": "address"
        }
      ],
      "stateMutability": "view",
      "type": "function"
    },
    {
      "inputs": [],
      "name": "pause",
      "outputs": [],
      "stateMutability": "nonpayable",
      "type": "function"
    },
    {
      "inputs": [],
      "name": "paused",
      "outputs": [
        {
          "internalType": "bool",
          "name": "",
          "type": "bool"
        }
      ],
      "stateMutability": "view",
      "type": "function"
    },
    {
      "inputs": [],
      "name": "renounceOwnership",
      "outputs": [],
      "stateMutability": "nonpayable",
      "type": "function"
    },
    {
      "inputs": [
        {
          "internalType": "bytes32",
          "name": "role",
          "type": "bytes32"
        },
        {
          "internalType": "address",
          "name": "account",
          "type": "address"
        }
      ],
      "name": "renounceRole",
      "outputs": [],
      "stateMutability": "nonpayable",
      "type": "function"
    },
    {
      "inputs": [
        {
          "internalType": "bytes32",
          "name": "role",
          "type": "bytes32"
        },
        {
          "internalType": "address",
          "name": "account",
          "type": "address"
        }
      ],
      "name": "revokeRole",
      "outputs": [],
      "stateMutability": "nonpayable",
      "type": "function"
    },
    {
      "inputs": [
        {
          "internalType": "address",
          "name": "from",
          "type": "address"
        },
        {
          "internalType": "address",
          "name": "to",
          "type": "address"
        },
        {
          "internalType": "uint256[]",
          "name": "ids",
          "type": "uint256[]"
        },
        {
          "internalType": "uint256[]",
          "name": "amounts",
          "type": "uint256[]"
        },
        {
          "internalType": "bytes",
          "name": "data",
          "type": "bytes"
        }
      ],
      "name": "safeBatchTransferFrom",
      "outputs": [],
      "stateMutability": "nonpayable",
      "type": "function"
    },
    {
      "inputs": [
        {
          "internalType": "address",
          "name": "from",
          "type": "address"
        },
        {
          "internalType": "address",
          "name": "to",
          "type": "address"
        },
        {
          "internalType": "uint256",
          "name": "id",
          "type": "uint256"
        },
        {
          "internalType": "uint256",
          "name": "amount",
          "type": "uint256"
        },
        {
          "internalType": "bytes",
          "name": "data",
          "type": "bytes"
        }
      ],
      "name": "safeTransferFrom",
      "outputs": [],
      "stateMutability": "nonpayable",
      "type": "function"
    },
    {
      "inputs": [
        {
          "internalType": "address",
          "name": "operator",
          "type": "address"
        },
        {
          "internalType": "bool",
          "name": "approved",
          "type": "bool"
        }
      ],
      "name": "setApprovalForAll",
      "outputs": [],
      "stateMutability": "nonpayable",
      "type": "function"
    },
    {
      "inputs": [
        {
          "internalType": "bytes4",
          "name": "interfaceId",
          "type": "bytes4"
        }
      ],
      "name": "supportsInterface",
      "outputs": [
        {
          "internalType": "bool",
          "name": "",
          "type": "bool"
        }
      ],
      "stateMutability": "view",
      "type": "function"
    },
    {
      "inputs": [
        {
          "internalType": "address",
          "name": "newOwner",
          "type": "address"
        }
      ],
      "name": "transferOwnership",
      "outputs": [],
      "stateMutability": "nonpayable",
      "type": "function"
    },
    {
      "inputs": [],
      "name": "unpause",
      "outputs": [],
      "stateMutability": "nonpayable",
      "type": "function"
    },
    {
      "inputs": [
        {
          "internalType": "uint256",
          "name": "",
          "type": "uint256"
        }
      ],
      "name": "uri",
      "outputs": [
        {
          "internalType": "string",
          "name": "",
          "type": "string"
        }
      ],
      "stateMutability": "view",
      "type": "function"
    }
  ],
  "bytecode": "0x60806040523480156200001157600080fd5b506040518060600160405280602d8152602001620055c9602d9139806200003e816200012760201b60201c565b506000600560006101000a81548160ff0219169083151502179055506200007e6000801b620000726200014360201b60201c565b6200014b60201b60201c565b620000bf7f9f2df0fed2c77648de5860a4cc508cd0818c85b8b8a1ab4ceeef8d981c8956a6620000b36200014360201b60201c565b6200014b60201b60201c565b620001007f65d7a28e3265b37a6474929f336521b332c1681b933f6cb9f3376673440d862a620000f46200014360201b60201c565b6200014b60201b60201c565b5062000121620001156200014360201b60201c565b6200019360201b60201c565b620005b4565b80600490805190602001906200013f9291906200049f565b5050565b600033905090565b6200016282826200025960201b620011fa1760201c565b6200018e81600160008581526020019081526020016000206200026f60201b620012081790919060201c565b505050565b6000600560019054906101000a900473ffffffffffffffffffffffffffffffffffffffff16905081600560016101000a81548173ffffffffffffffffffffffffffffffffffffffff021916908373ffffffffffffffffffffffffffffffffffffffff1602179055508173ffffffffffffffffffffffffffffffffffffffff168173ffffffffffffffffffffffffffffffffffffffff167f8be0079c531659141344cd1fd0a4f28419497f9722a3daafe3b4186f6b6457e060405160405180910390a35050565b6200026b8282620002a760201b60201c565b5050565b60006200029f836000018373ffffffffffffffffffffffffffffffffffffffff1660001b6200039860201b60201c565b905092915050565b620002b982826200041260201b60201c565b6200039457600160008084815260200190815260200160002060000160008373ffffffffffffffffffffffffffffffffffffffff1673ffffffffffffffffffffffffffffffffffffffff16815260200190815260200160002060006101000a81548160ff021916908315150217905550620003396200014360201b60201c565b73ffffffffffffffffffffffffffffffffffffffff168173ffffffffffffffffffffffffffffffffffffffff16837f2f8788117e7eff1d82e926ec794901d17c78024a50270940304540a733656f0d60405160405180910390a45b5050565b6000620003ac83836200047c60201b60201c565b620004075782600001829080600181540180825580915050600190039060005260206000200160009091909190915055826000018054905083600101600084815260200190815260200160002081905550600190506200040c565b600090505b92915050565b600080600084815260200190815260200160002060000160008373ffffffffffffffffffffffffffffffffffffffff1673ffffffffffffffffffffffffffffffffffffffff16815260200190815260200160002060009054906101000a900460ff16905092915050565b600080836001016000848152602001908152602001600020541415905092915050565b828054620004ad906200057e565b90600052602060002090601f016020900481019282620004d157600085556200051d565b82601f10620004ec57805160ff19168380011785556200051d565b828001600101855582156200051d579182015b828111156200051c578251825591602001919060010190620004ff565b5b5090506200052c919062000530565b5090565b5b808211156200054b57600081600090555060010162000531565b5090565b7f4e487b7100000000000000000000000000000000000000000000000000000000600052602260045260246000fd5b600060028204905060018216806200059757607f821691505b60208210811415620005ae57620005ad6200054f565b5b50919050565b61500580620005c46000396000f3fe608060405234801561001057600080fd5b50600436106101c35760003560e01c80638456cb59116100f9578063d539139311610097578063e985e9c511610071578063e985e9c5146104dc578063f242432a1461050c578063f2fde38b14610528578063f5298aca14610544576101c3565b8063d539139314610484578063d547741f146104a2578063e63ab1e9146104be576101c3565b806391d14854116100d357806391d14854146103ea578063a217fddf1461041a578063a22cb46514610438578063ca15c87314610454576101c3565b80638456cb59146103925780638da5cb5b1461039c5780639010d07c146103ba576101c3565b806336568abe116101665780635c975abb116101405780635c975abb146103325780636b20c45414610350578063715018a61461036c578063731133e914610376576101c3565b806336568abe146102dc5780633f4ba83a146102f85780634e1273f414610302576101c3565b80631f7fdffa116101a25780631f7fdffa14610258578063248a9ca3146102745780632eb2c2d6146102a45780632f2ff15d146102c0576101c3565b8062fdd58e146101c857806301ffc9a7146101f85780630e89341c14610228575b600080fd5b6101e260048036038101906101dd91906131c1565b610560565b6040516101ef9190613210565b60405180910390f35b610212600480360381019061020d9190613283565b61062a565b60405161021f91906132cb565b60405180910390f35b610242600480360381019061023d91906132e6565b61063c565b60405161024f91906133ac565b60405180910390f35b610272600480360381019061026d91906135cb565b6106d0565b005b61028e600480360381019061028991906136bc565b610752565b60405161029b91906136f8565b60405180910390f35b6102be60048036038101906102b99190613713565b610771565b005b6102da60048036038101906102d591906137e2565b610812565b005b6102f660048036038101906102f191906137e2565b610846565b005b61030061087a565b005b61031c600480360381019061031791906138e5565b6108f4565b6040516103299190613a1b565b60405180910390f35b61033a610a0d565b60405161034791906132cb565b60405180910390f35b61036a60048036038101906103659190613a3d565b610a24565b005b610374610ac1565b005b610390600480360381019061038b9190613ac8565b610b49565b005b61039a610bcb565b005b6103a4610c45565b6040516103b19190613b5a565b60405180910390f35b6103d460048036038101906103cf9190613b75565b610c6f565b6040516103e19190613b5a565b60405180910390f35b61040460048036038101906103ff91906137e2565b610c9e565b60405161041191906132cb565b60405180910390f35b610422610d08565b60405161042f91906136f8565b60405180910390f35b610452600480360381019061044d9190613be1565b610d0f565b005b61046e600480360381019061046991906136bc565b610e90565b60405161047b9190613210565b60405180910390f35b61048c610eb4565b60405161049991906136f8565b60405180910390f35b6104bc60048036038101906104b791906137e2565b610ed8565b005b6104c6610f0c565b6040516104d391906136f8565b60405180910390f35b6104f660048036038101906104f19190613c21565b610f30565b60405161050391906132cb565b60405180910390f35b61052660048036038101906105219190613c61565b610fc4565b005b610542600480360381019061053d9190613cf8565b611065565b005b61055e60048036038101906105599190613d25565b61115d565b005b60008073ffffffffffffffffffffffffffffffffffffffff168373ffffffffffffffffffffffffffffffffffffffff1614156105d1576040517f08c379a00000000000000000000000000000000000000000000000000000000081526004016105c890613dea565b60405180910390fd5b6002600083815260200190815260200160002060008473ffffffffffffffffffffffffffffffffffffffff1673ffffffffffffffffffffffffffffffffffffffff16815260200190815260200160002054905092915050565b600061063582611238565b9050919050565b60606004805461064b90613e39565b80601f016020809104026020016040519081016040528092919081815260200182805461067790613e39565b80156106c45780601f10610699576101008083540402835291602001916106c4565b820191906000526020600020905b8154815290600101906020018083116106a757829003601f168201915b50505050509050919050565b6107017f9f2df0fed2c77648de5860a4cc508cd0818c85b8b8a1ab4ceeef8d981c8956a66106fc61131a565b610c9e565b610740576040517f08c379a000000000000000000000000000000000000000000000000000000000815260040161073790613edd565b60405180910390fd5b61074c84848484611322565b50505050565b6000806000838152602001908152602001600020600101549050919050565b61077961131a565b73ffffffffffffffffffffffffffffffffffffffff168573ffffffffffffffffffffffffffffffffffffffff1614806107bf57506107be856107b961131a565b610f30565b5b6107fe576040517f08c379a00000000000000000000000000000000000000000000000000000000081526004016107f590613f6f565b60405180910390fd5b61080b8585858585611541565b5050505050565b61081c8282611858565b610841816001600085815260200190815260200160002061120890919063ffffffff16565b505050565b6108508282611881565b610875816001600085815260200190815260200160002061190490919063ffffffff16565b505050565b6108ab7f65d7a28e3265b37a6474929f336521b332c1681b933f6cb9f3376673440d862a6108a661131a565b610c9e565b6108ea576040517f08c379a00000000000000000000000000000000000000000000000000000000081526004016108e190614001565b60405180910390fd5b6108f2611934565b565b6060815183511461093a576040517f08c379a000000000000000000000000000000000000000000000000000000000815260040161093190614093565b60405180910390fd5b6000835167ffffffffffffffff811115610957576109566133d3565b5b6040519080825280602002602001820160405280156109855781602001602082028036833780820191505090505b50905060005b8451811015610a02576109d28582815181106109aa576109a96140b3565b5b60200260200101518583815181106109c5576109c46140b3565b5b6020026020010151610560565b8282815181106109e5576109e46140b3565b5b602002602001018181525050806109fb90614111565b905061098b565b508091505092915050565b6000600560009054906101000a900460ff16905090565b610a2c61131a565b73ffffffffffffffffffffffffffffffffffffffff168373ffffffffffffffffffffffffffffffffffffffff161480610a725750610a7183610a6c61131a565b610f30565b5b610ab1576040517f08c379a0000000000000000000000000000000000000000000000000000000008152600401610aa8906141cc565b60405180910390fd5b610abc8383836119d6565b505050565b610ac961131a565b73ffffffffffffffffffffffffffffffffffffffff16610ae7610c45565b73ffffffffffffffffffffffffffffffffffffffff1614610b3d576040517f08c379a0000000000000000000000000000000000000000000000000000000008152600401610b3490614238565b60405180910390fd5b610b476000611c89565b565b610b7a7f9f2df0fed2c77648de5860a4cc508cd0818c85b8b8a1ab4ceeef8d981c8956a6610b7561131a565b610c9e565b610bb9576040517f08c379a0000000000000000000000000000000000000000000000000000000008152600401610bb090613edd565b60405180910390fd5b610bc584848484611d4f565b50505050565b610bfc7f65d7a28e3265b37a6474929f336521b332c1681b933f6cb9f3376673440d862a610bf761131a565b610c9e565b610c3b576040517f08c379a0000000000000000000000000000000000000000000000000000000008152600401610c32906142ca565b60405180910390fd5b610c43611ee6565b565b6000600560019054906101000a900473ffffffffffffffffffffffffffffffffffffffff16905090565b6000610c968260016000868152602001908152602001600020611f8990919063ffffffff16565b905092915050565b600080600084815260200190815260200160002060000160008373ffffffffffffffffffffffffffffffffffffffff1673ffffffffffffffffffffffffffffffffffffffff16815260200190815260200160002060009054906101000a900460ff16905092915050565b6000801b81565b8173ffffffffffffffffffffffffffffffffffffffff16610d2e61131a565b73ffffffffffffffffffffffffffffffffffffffff161415610d85576040517f08c379a0000000000000000000000000000000000000000000000000000000008152600401610d7c9061435c565b60405180910390fd5b8060036000610d9261131a565b73ffffffffffffffffffffffffffffffffffffffff1673ffffffffffffffffffffffffffffffffffffffff16815260200190815260200160002060008473ffffffffffffffffffffffffffffffffffffffff1673ffffffffffffffffffffffffffffffffffffffff16815260200190815260200160002060006101000a81548160ff0219169083151502179055508173ffffffffffffffffffffffffffffffffffffffff16610e3f61131a565b73ffffffffffffffffffffffffffffffffffffffff167f17307eab39ab6107e8899845ad3d59bd9653f200f220920489ca2b5937696c3183604051610e8491906132cb565b60405180910390a35050565b6000610ead60016000848152602001908152602001600020611fa3565b9050919050565b7f9f2df0fed2c77648de5860a4cc508cd0818c85b8b8a1ab4ceeef8d981c8956a681565b610ee28282611fb8565b610f07816001600085815260200190815260200160002061190490919063ffffffff16565b505050565b7f65d7a28e3265b37a6474929f336521b332c1681b933f6cb9f3376673440d862a81565b6000600360008473ffffffffffffffffffffffffffffffffffffffff1673ffffffffffffffffffffffffffffffffffffffff16815260200190815260200160002060008373ffffffffffffffffffffffffffffffffffffffff1673ffffffffffffffffffffffffffffffffffffffff16815260200190815260200160002060009054906101000a900460ff16905092915050565b610fcc61131a565b73ffffffffffffffffffffffffffffffffffffffff168573ffffffffffffffffffffffffffffffffffffffff16148061101257506110118561100c61131a565b610f30565b5b611051576040517f08c379a0000000000000000000000000000000000000000000000000000000008152600401611048906141cc565b60405180910390fd5b61105e8585858585611fe1565b5050505050565b61106d61131a565b73ffffffffffffffffffffffffffffffffffffffff1661108b610c45565b73ffffffffffffffffffffffffffffffffffffffff16146110e1576040517f08c379a00000000000000000000000000000000000000000000000000000000081526004016110d890614238565b60405180910390fd5b600073ffffffffffffffffffffffffffffffffffffffff168173ffffffffffffffffffffffffffffffffffffffff161415611151576040517f08c379a0000000000000000000000000000000000000000000000000000000008152600401611148906143ee565b60405180910390fd5b61115a81611c89565b50565b61116561131a565b73ffffffffffffffffffffffffffffffffffffffff168373ffffffffffffffffffffffffffffffffffffffff1614806111ab57506111aa836111a561131a565b610f30565b5b6111ea576040517f08c379a00000000000000000000000000000000000000000000000000000000081526004016111e1906141cc565b60405180910390fd5b6111f5838383612266565b505050565b6112048282612485565b5050565b6000611230836000018373ffffffffffffffffffffffffffffffffffffffff1660001b612565565b905092915050565b60007fd9b67a26000000000000000000000000000000000000000000000000000000007bffffffffffffffffffffffffffffffffffffffffffffffffffffffff1916827bffffffffffffffffffffffffffffffffffffffffffffffffffffffff1916148061130357507f0e89341c000000000000000000000000000000000000000000000000000000007bffffffffffffffffffffffffffffffffffffffffffffffffffffffff1916827bffffffffffffffffffffffffffffffffffffffffffffffffffffffff1916145b806113135750611312826125d5565b5b9050919050565b600033905090565b600073ffffffffffffffffffffffffffffffffffffffff168473ffffffffffffffffffffffffffffffffffffffff161415611392576040517f08c379a000000000000000000000000000000000000000000000000000000000815260040161138990614480565b60405180910390fd5b81518351146113d6576040517f08c379a00000000000000000000000000000000000000000000000000000000081526004016113cd90614512565b60405180910390fd5b60006113e061131a565b90506113f18160008787878761264f565b60005b84518110156114ab578381815181106114105761140f6140b3565b5b60200260200101516002600087848151811061142f5761142e6140b3565b5b6020026020010151815260200190815260200160002060008873ffffffffffffffffffffffffffffffffffffffff1673ffffffffffffffffffffffffffffffffffffffff16815260200190815260200160002060008282546114919190614532565b9250508190555080806114a390614111565b9150506113f4565b508473ffffffffffffffffffffffffffffffffffffffff16600073ffffffffffffffffffffffffffffffffffffffff168273ffffffffffffffffffffffffffffffffffffffff167f4a39dc06d4c0dbc64b70af90fd698a233a518aa5d07e595d983b8c0526c8f7fb8787604051611523929190614588565b60405180910390a461153a81600087878787612665565b5050505050565b8151835114611585576040517f08c379a000000000000000000000000000000000000000000000000000000000815260040161157c90614512565b60405180910390fd5b600073ffffffffffffffffffffffffffffffffffffffff168473ffffffffffffffffffffffffffffffffffffffff1614156115f5576040517f08c379a00000000000000000000000000000000000000000000000000000000081526004016115ec90614631565b60405180910390fd5b60006115ff61131a565b905061160f81878787878761264f565b60005b84518110156117c35760008582815181106116305761162f6140b3565b5b60200260200101519050600085838151811061164f5761164e6140b3565b5b6020026020010151905060006002600084815260200190815260200160002060008b73ffffffffffffffffffffffffffffffffffffffff1673ffffffffffffffffffffffffffffffffffffffff168152602001908152602001600020549050818110156116f1576040517f08c379a00000000000000000000000000000000000000000000000000000000081526004016116e8906146c3565b60405180910390fd5b8181036002600085815260200190815260200160002060008c73ffffffffffffffffffffffffffffffffffffffff1673ffffffffffffffffffffffffffffffffffffffff16815260200190815260200160002081905550816002600085815260200190815260200160002060008b73ffffffffffffffffffffffffffffffffffffffff1673ffffffffffffffffffffffffffffffffffffffff16815260200190815260200160002060008282546117a89190614532565b92505081905550505050806117bc90614111565b9050611612565b508473ffffffffffffffffffffffffffffffffffffffff168673ffffffffffffffffffffffffffffffffffffffff168273ffffffffffffffffffffffffffffffffffffffff167f4a39dc06d4c0dbc64b70af90fd698a233a518aa5d07e595d983b8c0526c8f7fb878760405161183a929190614588565b60405180910390a4611850818787878787612665565b505050505050565b61186182610752565b6118728161186d61131a565b61283d565b61187c8383612485565b505050565b61188961131a565b73ffffffffffffffffffffffffffffffffffffffff168173ffffffffffffffffffffffffffffffffffffffff16146118f6576040517f08c379a00000000000000000000000000000000000000000000000000000000081526004016118ed90614755565b60405180910390fd5b61190082826128da565b5050565b600061192c836000018373ffffffffffffffffffffffffffffffffffffffff1660001b6129bb565b905092915050565b61193c610a0d565b61197b576040517f08c379a0000000000000000000000000000000000000000000000000000000008152600401611972906147c1565b60405180910390fd5b6000600560006101000a81548160ff0219169083151502179055507f5db9ee0a495bf2e6ff9c91a7834c1ba4fdd244a5e8aa4e537bd38aeae4b073aa6119bf61131a565b6040516119cc9190613b5a565b60405180910390a1565b600073ffffffffffffffffffffffffffffffffffffffff168373ffffffffffffffffffffffffffffffffffffffff161415611a46576040517f08c379a0000000000000000000000000000000000000000000000000000000008152600401611a3d90614853565b60405180910390fd5b8051825114611a8a576040517f08c379a0000000000000000000000000000000000000000000000000000000008152600401611a8190614512565b60405180910390fd5b6000611a9461131a565b9050611ab48185600086866040518060200160405280600081525061264f565b60005b8351811015611c03576000848281518110611ad557611ad46140b3565b5b602002602001015190506000848381518110611af457611af36140b3565b5b6020026020010151905060006002600084815260200190815260200160002060008973ffffffffffffffffffffffffffffffffffffffff1673ffffffffffffffffffffffffffffffffffffffff16815260200190815260200160002054905081811015611b96576040517f08c379a0000000000000000000000000000000000000000000000000000000008152600401611b8d906148e5565b60405180910390fd5b8181036002600085815260200190815260200160002060008a73ffffffffffffffffffffffffffffffffffffffff1673ffffffffffffffffffffffffffffffffffffffff168152602001908152602001600020819055505050508080611bfb90614111565b915050611ab7565b50600073ffffffffffffffffffffffffffffffffffffffff168473ffffffffffffffffffffffffffffffffffffffff168273ffffffffffffffffffffffffffffffffffffffff167f4a39dc06d4c0dbc64b70af90fd698a233a518aa5d07e595d983b8c0526c8f7fb8686604051611c7b929190614588565b60405180910390a450505050565b6000600560019054906101000a900473ffffffffffffffffffffffffffffffffffffffff16905081600560016101000a81548173ffffffffffffffffffffffffffffffffffffffff021916908373ffffffffffffffffffffffffffffffffffffffff1602179055508173ffffffffffffffffffffffffffffffffffffffff168173ffffffffffffffffffffffffffffffffffffffff167f8be0079c531659141344cd1fd0a4f28419497f9722a3daafe3b4186f6b6457e060405160405180910390a35050565b600073ffffffffffffffffffffffffffffffffffffffff168473ffffffffffffffffffffffffffffffffffffffff161415611dbf576040517f08c379a0000000000000000000000000000000000000000000000000000000008152600401611db690614480565b60405180910390fd5b6000611dc961131a565b9050611dea81600087611ddb88612acf565b611de488612acf565b8761264f565b826002600086815260200190815260200160002060008773ffffffffffffffffffffffffffffffffffffffff1673ffffffffffffffffffffffffffffffffffffffff1681526020019081526020016000206000828254611e4a9190614532565b925050819055508473ffffffffffffffffffffffffffffffffffffffff16600073ffffffffffffffffffffffffffffffffffffffff168273ffffffffffffffffffffffffffffffffffffffff167fc3d58168c5ae7397731d063d5bbf3d657854427343f4c083240f7aacaa2d0f628787604051611ec8929190614905565b60405180910390a4611edf81600087878787612b49565b5050505050565b611eee610a0d565b15611f2e576040517f08c379a0000000000000000000000000000000000000000000000000000000008152600401611f259061497a565b60405180910390fd5b6001600560006101000a81548160ff0219169083151502179055507f62e78cea01bee320cd4e420270b5ea74000d11b0c9f74754ebdbfc544b05a258611f7261131a565b604051611f7f9190613b5a565b60405180910390a1565b6000611f988360000183612d21565b60001c905092915050565b6000611fb182600001612d4c565b9050919050565b611fc182610752565b611fd281611fcd61131a565b61283d565b611fdc83836128da565b505050565b600073ffffffffffffffffffffffffffffffffffffffff168473ffffffffffffffffffffffffffffffffffffffff161415612051576040517f08c379a000000000000000000000000000000000000000000000000000000000815260040161204890614631565b60405180910390fd5b600061205b61131a565b905061207b81878761206c88612acf565b61207588612acf565b8761264f565b60006002600086815260200190815260200160002060008873ffffffffffffffffffffffffffffffffffffffff1673ffffffffffffffffffffffffffffffffffffffff16815260200190815260200160002054905083811015612113576040517f08c379a000000000000000000000000000000000000000000000000000000000815260040161210a906146c3565b60405180910390fd5b8381036002600087815260200190815260200160002060008973ffffffffffffffffffffffffffffffffffffffff1673ffffffffffffffffffffffffffffffffffffffff16815260200190815260200160002081905550836002600087815260200190815260200160002060008873ffffffffffffffffffffffffffffffffffffffff1673ffffffffffffffffffffffffffffffffffffffff16815260200190815260200160002060008282546121ca9190614532565b925050819055508573ffffffffffffffffffffffffffffffffffffffff168773ffffffffffffffffffffffffffffffffffffffff168373ffffffffffffffffffffffffffffffffffffffff167fc3d58168c5ae7397731d063d5bbf3d657854427343f4c083240f7aacaa2d0f628888604051612247929190614905565b60405180910390a461225d828888888888612b49565b50505050505050565b600073ffffffffffffffffffffffffffffffffffffffff168373ffffffffffffffffffffffffffffffffffffffff1614156122d6576040517f08c379a00000000000000000000000000000000000000000000000000000000081526004016122cd90614853565b60405180910390fd5b60006122e061131a565b9050612310818560006122f287612acf565b6122fb87612acf565b6040518060200160405280600081525061264f565b60006002600085815260200190815260200160002060008673ffffffffffffffffffffffffffffffffffffffff1673ffffffffffffffffffffffffffffffffffffffff168152602001908152602001600020549050828110156123a8576040517f08c379a000000000000000000000000000000000000000000000000000000000815260040161239f906148e5565b60405180910390fd5b8281036002600086815260200190815260200160002060008773ffffffffffffffffffffffffffffffffffffffff1673ffffffffffffffffffffffffffffffffffffffff16815260200190815260200160002081905550600073ffffffffffffffffffffffffffffffffffffffff168573ffffffffffffffffffffffffffffffffffffffff168373ffffffffffffffffffffffffffffffffffffffff167fc3d58168c5ae7397731d063d5bbf3d657854427343f4c083240f7aacaa2d0f628787604051612476929190614905565b60405180910390a45050505050565b61248f8282610c9e565b61256157600160008084815260200190815260200160002060000160008373ffffffffffffffffffffffffffffffffffffffff1673ffffffffffffffffffffffffffffffffffffffff16815260200190815260200160002060006101000a81548160ff02191690831515021790555061250661131a565b73ffffffffffffffffffffffffffffffffffffffff168173ffffffffffffffffffffffffffffffffffffffff16837f2f8788117e7eff1d82e926ec794901d17c78024a50270940304540a733656f0d60405160405180910390a45b5050565b60006125718383612d5d565b6125ca5782600001829080600181540180825580915050600190039060005260206000200160009091909190915055826000018054905083600101600084815260200190815260200160002081905550600190506125cf565b600090505b92915050565b60007f5a05180f000000000000000000000000000000000000000000000000000000007bffffffffffffffffffffffffffffffffffffffffffffffffffffffff1916827bffffffffffffffffffffffffffffffffffffffffffffffffffffffff19161480612648575061264782612d80565b5b9050919050565b61265d868686868686612dfa565b505050505050565b6126848473ffffffffffffffffffffffffffffffffffffffff16612e58565b15612835578373ffffffffffffffffffffffffffffffffffffffff1663bc197c8187878686866040518663ffffffff1660e01b81526004016126ca9594939291906149ef565b6020604051808303816000875af192505050801561270657506040513d601f19601f820116820180604052508101906127039190614a6c565b60015b6127ac57612712614aa6565b806308c379a0141561276f5750612727614ac8565b806127325750612771565b806040517f08c379a000000000000000000000000000000000000000000000000000000000815260040161276691906133ac565b60405180910390fd5b505b6040517f08c379a00000000000000000000000000000000000000000000000000000000081526004016127a390614bd0565b60405180910390fd5b63bc197c8160e01b7bffffffffffffffffffffffffffffffffffffffffffffffffffffffff1916817bffffffffffffffffffffffffffffffffffffffffffffffffffffffff191614612833576040517f08c379a000000000000000000000000000000000000000000000000000000000815260040161282a90614c62565b60405180910390fd5b505b505050505050565b6128478282610c9e565b6128d65761286c8173ffffffffffffffffffffffffffffffffffffffff166014612e6b565b61287a8360001c6020612e6b565b60405160200161288b929190614d56565b6040516020818303038152906040526040517f08c379a00000000000000000000000000000000000000000000000000000000081526004016128cd91906133ac565b60405180910390fd5b5050565b6128e48282610c9e565b156129b757600080600084815260200190815260200160002060000160008373ffffffffffffffffffffffffffffffffffffffff1673ffffffffffffffffffffffffffffffffffffffff16815260200190815260200160002060006101000a81548160ff02191690831515021790555061295c61131a565b73ffffffffffffffffffffffffffffffffffffffff168173ffffffffffffffffffffffffffffffffffffffff16837ff6391f5c32d9c69d2a47ea670b442974b53935d1edc7fd64eb21e047a839171b60405160405180910390a45b5050565b60008083600101600084815260200190815260200160002054905060008114612ac35760006001826129ed9190614d90565b9050600060018660000180549050612a059190614d90565b9050818114612a74576000866000018281548110612a2657612a256140b3565b5b9060005260206000200154905080876000018481548110612a4a57612a496140b3565b5b90600052602060002001819055508387600101600083815260200190815260200160002081905550505b85600001805480612a8857612a87614dc4565b5b600190038181906000526020600020016000905590558560010160008681526020019081526020016000206000905560019350505050612ac9565b60009150505b92915050565b60606000600167ffffffffffffffff811115612aee57612aed6133d3565b5b604051908082528060200260200182016040528015612b1c5781602001602082028036833780820191505090505b5090508281600081518110612b3457612b336140b3565b5b60200260200101818152505080915050919050565b612b688473ffffffffffffffffffffffffffffffffffffffff16612e58565b15612d19578373ffffffffffffffffffffffffffffffffffffffff1663f23a6e6187878686866040518663ffffffff1660e01b8152600401612bae959493929190614df3565b6020604051808303816000875af1925050508015612bea57506040513d601f19601f82011682018060405250810190612be79190614a6c565b60015b612c9057612bf6614aa6565b806308c379a01415612c535750612c0b614ac8565b80612c165750612c55565b806040517f08c379a0000000000000000000000000000000000000000000000000000000008152600401612c4a91906133ac565b60405180910390fd5b505b6040517f08c379a0000000000000000000000000000000000000000000000000000000008152600401612c8790614bd0565b60405180910390fd5b63f23a6e6160e01b7bffffffffffffffffffffffffffffffffffffffffffffffffffffffff1916817bffffffffffffffffffffffffffffffffffffffffffffffffffffffff191614612d17576040517f08c379a0000000000000000000000000000000000000000000000000000000008152600401612d0e90614c62565b60405180910390fd5b505b505050505050565b6000826000018281548110612d3957612d386140b3565b5b9060005260206000200154905092915050565b600081600001805490509050919050565b600080836001016000848152602001908152602001600020541415905092915050565b60007f7965db0b000000000000000000000000000000000000000000000000000000007bffffffffffffffffffffffffffffffffffffffffffffffffffffffff1916827bffffffffffffffffffffffffffffffffffffffffffffffffffffffff19161480612df35750612df2826130a7565b5b9050919050565b612e08868686868686613111565b612e10610a0d565b15612e50576040517f08c379a0000000000000000000000000000000000000000000000000000000008152600401612e4790614ebf565b60405180910390fd5b505050505050565b600080823b905060008111915050919050565b606060006002836002612e7e9190614edf565b612e889190614532565b67ffffffffffffffff811115612ea157612ea06133d3565b5b6040519080825280601f01601f191660200182016040528015612ed35781602001600182028036833780820191505090505b5090507f300000000000000000000000000000000000000000000000000000000000000081600081518110612f0b57612f0a6140b3565b5b60200101907effffffffffffffffffffffffffffffffffffffffffffffffffffffffffffff1916908160001a9053507f780000000000000000000000000000000000000000000000000000000000000081600181518110612f6f57612f6e6140b3565b5b60200101907effffffffffffffffffffffffffffffffffffffffffffffffffffffffffffff1916908160001a90535060006001846002612faf9190614edf565b612fb99190614532565b90505b6001811115613059577f3031323334353637383961626364656600000000000000000000000000000000600f861660108110612ffb57612ffa6140b3565b5b1a60f81b828281518110613012576130116140b3565b5b60200101907effffffffffffffffffffffffffffffffffffffffffffffffffffffffffffff1916908160001a905350600485901c94508061305290614f39565b9050612fbc565b506000841461309d576040517f08c379a000000000000000000000000000000000000000000000000000000000815260040161309490614faf565b60405180910390fd5b8091505092915050565b60007f01ffc9a7000000000000000000000000000000000000000000000000000000007bffffffffffffffffffffffffffffffffffffffffffffffffffffffff1916827bffffffffffffffffffffffffffffffffffffffffffffffffffffffff1916149050919050565b505050505050565b6000604051905090565b600080fd5b600080fd5b600073ffffffffffffffffffffffffffffffffffffffff82169050919050565b60006131588261312d565b9050919050565b6131688161314d565b811461317357600080fd5b50565b6000813590506131858161315f565b92915050565b6000819050919050565b61319e8161318b565b81146131a957600080fd5b50565b6000813590506131bb81613195565b92915050565b600080604083850312156131d8576131d7613123565b5b60006131e685828601613176565b92505060206131f7858286016131ac565b9150509250929050565b61320a8161318b565b82525050565b60006020820190506132256000830184613201565b92915050565b60007fffffffff0000000000000000000000000000000000000000000000000000000082169050919050565b6132608161322b565b811461326b57600080fd5b50565b60008135905061327d81613257565b92915050565b60006020828403121561329957613298613123565b5b60006132a78482850161326e565b91505092915050565b60008115159050919050565b6132c5816132b0565b82525050565b60006020820190506132e060008301846132bc565b92915050565b6000602082840312156132fc576132fb613123565b5b600061330a848285016131ac565b91505092915050565b600081519050919050565b600082825260208201905092915050565b60005b8381101561334d578082015181840152602081019050613332565b8381111561335c576000848401525b50505050565b6000601f19601f8301169050919050565b600061337e82613313565b613388818561331e565b935061339881856020860161332f565b6133a181613362565b840191505092915050565b600060208201905081810360008301526133c68184613373565b905092915050565b600080fd5b7f4e487b7100000000000000000000000000000000000000000000000000000000600052604160045260246000fd5b61340b82613362565b810181811067ffffffffffffffff8211171561342a576134296133d3565b5b80604052505050565b600061343d613119565b90506134498282613402565b919050565b600067ffffffffffffffff821115613469576134686133d3565b5b602082029050602081019050919050565b600080fd5b600061349261348d8461344e565b613433565b905080838252602082019050602084028301858111156134b5576134b461347a565b5b835b818110156134de57806134ca88826131ac565b8452602084019350506020810190506134b7565b5050509392505050565b600082601f8301126134fd576134fc6133ce565b5b813561350d84826020860161347f565b91505092915050565b600080fd5b600067ffffffffffffffff821115613536576135356133d3565b5b61353f82613362565b9050602081019050919050565b82818337600083830152505050565b600061356e6135698461351b565b613433565b90508281526020810184848401111561358a57613589613516565b5b61359584828561354c565b509392505050565b600082601f8301126135b2576135b16133ce565b5b81356135c284826020860161355b565b91505092915050565b600080600080608085870312156135e5576135e4613123565b5b60006135f387828801613176565b945050602085013567ffffffffffffffff81111561361457613613613128565b5b613620878288016134e8565b935050604085013567ffffffffffffffff81111561364157613640613128565b5b61364d878288016134e8565b925050606085013567ffffffffffffffff81111561366e5761366d613128565b5b61367a8782880161359d565b91505092959194509250565b6000819050919050565b61369981613686565b81146136a457600080fd5b50565b6000813590506136b681613690565b92915050565b6000602082840312156136d2576136d1613123565b5b60006136e0848285016136a7565b91505092915050565b6136f281613686565b82525050565b600060208201905061370d60008301846136e9565b92915050565b600080600080600060a0868803121561372f5761372e613123565b5b600061373d88828901613176565b955050602061374e88828901613176565b945050604086013567ffffffffffffffff81111561376f5761376e613128565b5b61377b888289016134e8565b935050606086013567ffffffffffffffff81111561379c5761379b613128565b5b6137a8888289016134e8565b925050608086013567ffffffffffffffff8111156137c9576137c8613128565b5b6137d58882890161359d565b9150509295509295909350565b600080604083850312156137f9576137f8613123565b5b6000613807858286016136a7565b925050602061381885828601613176565b9150509250929050565b600067ffffffffffffffff82111561383d5761383c6133d3565b5b602082029050602081019050919050565b600061386161385c84613822565b613433565b905080838252602082019050602084028301858111156138845761388361347a565b5b835b818110156138ad57806138998882613176565b845260208401935050602081019050613886565b5050509392505050565b600082601f8301126138cc576138cb6133ce565b5b81356138dc84826020860161384e565b91505092915050565b600080604083850312156138fc576138fb613123565b5b600083013567ffffffffffffffff81111561391a57613919613128565b5b613926858286016138b7565b925050602083013567ffffffffffffffff81111561394757613946613128565b5b613953858286016134e8565b9150509250929050565b600081519050919050565b600082825260208201905092915050565b6000819050602082019050919050565b6139928161318b565b82525050565b60006139a48383613989565b60208301905092915050565b6000602082019050919050565b60006139c88261395d565b6139d28185613968565b93506139dd83613979565b8060005b83811015613a0e5781516139f58882613998565b9750613a00836139b0565b9250506001810190506139e1565b5085935050505092915050565b60006020820190508181036000830152613a3581846139bd565b905092915050565b600080600060608486031215613a5657613a55613123565b5b6000613a6486828701613176565b935050602084013567ffffffffffffffff811115613a8557613a84613128565b5b613a91868287016134e8565b925050604084013567ffffffffffffffff811115613ab257613ab1613128565b5b613abe868287016134e8565b9150509250925092565b60008060008060808587031215613ae257613ae1613123565b5b6000613af087828801613176565b9450506020613b01878288016131ac565b9350506040613b12878288016131ac565b925050606085013567ffffffffffffffff811115613b3357613b32613128565b5b613b3f8782880161359d565b91505092959194509250565b613b548161314d565b82525050565b6000602082019050613b6f6000830184613b4b565b92915050565b60008060408385031215613b8c57613b8b613123565b5b6000613b9a858286016136a7565b9250506020613bab858286016131ac565b9150509250929050565b613bbe816132b0565b8114613bc957600080fd5b50565b600081359050613bdb81613bb5565b92915050565b60008060408385031215613bf857613bf7613123565b5b6000613c0685828601613176565b9250506020613c1785828601613bcc565b9150509250929050565b60008060408385031215613c3857613c37613123565b5b6000613c4685828601613176565b9250506020613c5785828601613176565b9150509250929050565b600080600080600060a08688031215613c7d57613c7c613123565b5b6000613c8b88828901613176565b9550506020613c9c88828901613176565b9450506040613cad888289016131ac565b9350506060613cbe888289016131ac565b925050608086013567ffffffffffffffff811115613cdf57613cde613128565b5b613ceb8882890161359d565b9150509295509295909350565b600060208284031215613d0e57613d0d613123565b5b6000613d1c84828501613176565b91505092915050565b600080600060608486031215613d3e57613d3d613123565b5b6000613d4c86828701613176565b9350506020613d5d868287016131ac565b9250506040613d6e868287016131ac565b9150509250925092565b7f455243313135353a2062616c616e636520717565727920666f7220746865207a60008201527f65726f2061646472657373000000000000000000000000000000000000000000602082015250565b6000613dd4602b8361331e565b9150613ddf82613d78565b604082019050919050565b60006020820190508181036000830152613e0381613dc7565b9050919050565b7f4e487b7100000000000000000000000000000000000000000000000000000000600052602260045260246000fd5b60006002820490506001821680613e5157607f821691505b60208210811415613e6557613e64613e0a565b5b50919050565b7f455243313135355072657365744d696e7465725061757365723a206d7573742060008201527f68617665206d696e74657220726f6c6520746f206d696e740000000000000000602082015250565b6000613ec760388361331e565b9150613ed282613e6b565b604082019050919050565b60006020820190508181036000830152613ef681613eba565b9050919050565b7f455243313135353a207472616e736665722063616c6c6572206973206e6f742060008201527f6f776e6572206e6f7220617070726f7665640000000000000000000000000000602082015250565b6000613f5960328361331e565b9150613f6482613efd565b604082019050919050565b60006020820190508181036000830152613f8881613f4c565b9050919050565b7f455243313135355072657365744d696e7465725061757365723a206d7573742060008201527f686176652070617573657220726f6c6520746f20756e70617573650000000000602082015250565b6000613feb603b8361331e565b9150613ff682613f8f565b604082019050919050565b6000602082019050818103600083015261401a81613fde565b9050919050565b7f455243313135353a206163636f756e747320616e6420696473206c656e67746860008201527f206d69736d617463680000000000000000000000000000000000000000000000602082015250565b600061407d60298361331e565b915061408882614021565b604082019050919050565b600060208201905081810360008301526140ac81614070565b9050919050565b7f4e487b7100000000000000000000000000000000000000000000000000000000600052603260045260246000fd5b7f4e487b7100000000000000000000000000000000000000000000000000000000600052601160045260246000fd5b600061411c8261318b565b91507fffffffffffffffffffffffffffffffffffffffffffffffffffffffffffffffff82141561414f5761414e6140e2565b5b600182019050919050565b7f455243313135353a2063616c6c6572206973206e6f74206f776e6572206e6f7260008201527f20617070726f7665640000000000000000000000000000000000000000000000602082015250565b60006141b660298361331e565b91506141c18261415a565b604082019050919050565b600060208201905081810360008301526141e5816141a9565b9050919050565b7f4f776e61626c653a2063616c6c6572206973206e6f7420746865206f776e6572600082015250565b600061422260208361331e565b915061422d826141ec565b602082019050919050565b6000602082019050818103600083015261425181614215565b9050919050565b7f455243313135355072657365744d696e7465725061757365723a206d7573742060008201527f686176652070617573657220726f6c6520746f20706175736500000000000000602082015250565b60006142b460398361331e565b91506142bf82614258565b604082019050919050565b600060208201905081810360008301526142e3816142a7565b9050919050565b7f455243313135353a2073657474696e6720617070726f76616c2073746174757360008201527f20666f722073656c660000000000000000000000000000000000000000000000602082015250565b600061434660298361331e565b9150614351826142ea565b604082019050919050565b6000602082019050818103600083015261437581614339565b9050919050565b7f4f776e61626c653a206e6577206f776e657220697320746865207a65726f206160008201527f6464726573730000000000000000000000000000000000000000000000000000602082015250565b60006143d860268361331e565b91506143e38261437c565b604082019050919050565b60006020820190508181036000830152614407816143cb565b9050919050565b7f455243313135353a206d696e7420746f20746865207a65726f2061646472657360008201527f7300000000000000000000000000000000000000000000000000000000000000602082015250565b600061446a60218361331e565b91506144758261440e565b604082019050919050565b600060208201905081810360008301526144998161445d565b9050919050565b7f455243313135353a2069647320616e6420616d6f756e7473206c656e6774682060008201527f6d69736d61746368000000000000000000000000000000000000000000000000602082015250565b60006144fc60288361331e565b9150614507826144a0565b604082019050919050565b6000602082019050818103600083015261452b816144ef565b9050919050565b600061453d8261318b565b91506145488361318b565b9250827fffffffffffffffffffffffffffffffffffffffffffffffffffffffffffffffff0382111561457d5761457c6140e2565b5b828201905092915050565b600060408201905081810360008301526145a281856139bd565b905081810360208301526145b681846139bd565b90509392505050565b7f455243313135353a207472616e7366657220746f20746865207a65726f20616460008201527f6472657373000000000000000000000000000000000000000000000000000000602082015250565b600061461b60258361331e565b9150614626826145bf565b604082019050919050565b6000602082019050818103600083015261464a8161460e565b9050919050565b7f455243313135353a20696e73756666696369656e742062616c616e636520666f60008201527f72207472616e7366657200000000000000000000000000000000000000000000602082015250565b60006146ad602a8361331e565b91506146b882614651565b604082019050919050565b600060208201905081810360008301526146dc816146a0565b9050919050565b7f416363657373436f6e74726f6c3a2063616e206f6e6c792072656e6f756e636560008201527f20726f6c657320666f722073656c660000000000000000000000000000000000602082015250565b600061473f602f8361331e565b915061474a826146e3565b604082019050919050565b6000602082019050818103600083015261476e81614732565b9050919050565b7f5061757361626c653a206e6f7420706175736564000000000000000000000000600082015250565b60006147ab60148361331e565b91506147b682614775565b602082019050919050565b600060208201905081810360008301526147da8161479e565b9050919050565b7f455243313135353a206275726e2066726f6d20746865207a65726f206164647260008201527f6573730000000000000000000000000000000000000000000000000000000000602082015250565b600061483d60238361331e565b9150614848826147e1565b604082019050919050565b6000602082019050818103600083015261486c81614830565b9050919050565b7f455243313135353a206275726e20616d6f756e7420657863656564732062616c60008201527f616e636500000000000000000000000000000000000000000000000000000000602082015250565b60006148cf60248361331e565b91506148da82614873565b604082019050919050565b600060208201905081810360008301526148fe816148c2565b9050919050565b600060408201905061491a6000830185613201565b6149276020830184613201565b9392505050565b7f5061757361626c653a2070617573656400000000000000000000000000000000600082015250565b600061496460108361331e565b915061496f8261492e565b602082019050919050565b6000602082019050818103600083015261499381614957565b9050919050565b600081519050919050565b600082825260208201905092915050565b60006149c18261499a565b6149cb81856149a5565b93506149db81856020860161332f565b6149e481613362565b840191505092915050565b600060a082019050614a046000830188613b4b565b614a116020830187613b4b565b8181036040830152614a2381866139bd565b90508181036060830152614a3781856139bd565b90508181036080830152614a4b81846149b6565b90509695505050505050565b600081519050614a6681613257565b92915050565b600060208284031215614a8257614a81613123565b5b6000614a9084828501614a57565b91505092915050565b60008160e01c9050919050565b600060033d1115614ac55760046000803e614ac2600051614a99565b90505b90565b600060443d1015614ad857614b5b565b614ae0613119565b60043d036004823e80513d602482011167ffffffffffffffff82111715614b08575050614b5b565b808201805167ffffffffffffffff811115614b265750505050614b5b565b80602083010160043d038501811115614b43575050505050614b5b565b614b5282602001850186613402565b82955050505050505b90565b7f455243313135353a207472616e7366657220746f206e6f6e204552433131353560008201527f526563656976657220696d706c656d656e746572000000000000000000000000602082015250565b6000614bba60348361331e565b9150614bc582614b5e565b604082019050919050565b60006020820190508181036000830152614be981614bad565b9050919050565b7f455243313135353a204552433131353552656365697665722072656a6563746560008201527f6420746f6b656e73000000000000000000000000000000000000000000000000602082015250565b6000614c4c60288361331e565b9150614c5782614bf0565b604082019050919050565b60006020820190508181036000830152614c7b81614c3f565b9050919050565b600081905092915050565b7f416363657373436f6e74726f6c3a206163636f756e7420000000000000000000600082015250565b6000614cc3601783614c82565b9150614cce82614c8d565b601782019050919050565b6000614ce482613313565b614cee8185614c82565b9350614cfe81856020860161332f565b80840191505092915050565b7f206973206d697373696e6720726f6c6520000000000000000000000000000000600082015250565b6000614d40601183614c82565b9150614d4b82614d0a565b601182019050919050565b6000614d6182614cb6565b9150614d6d8285614cd9565b9150614d7882614d33565b9150614d848284614cd9565b91508190509392505050565b6000614d9b8261318b565b9150614da68361318b565b925082821015614db957614db86140e2565b5b828203905092915050565b7f4e487b7100000000000000000000000000000000000000000000000000000000600052603160045260246000fd5b600060a082019050614e086000830188613b4b565b614e156020830187613b4b565b614e226040830186613201565b614e2f6060830185613201565b8181036080830152614e4181846149b6565b90509695505050505050565b7f455243313135355061757361626c653a20746f6b656e207472616e736665722060008201527f7768696c65207061757365640000000000000000000000000000000000000000602082015250565b6000614ea9602c8361331e565b9150614eb482614e4d565b604082019050919050565b60006020820190508181036000830152614ed881614e9c565b9050919050565b6000614eea8261318b565b9150614ef58361318b565b9250817fffffffffffffffffffffffffffffffffffffffffffffffffffffffffffffffff0483118215151615614f2e57614f2d6140e2565b5b828202905092915050565b6000614f448261318b565b91506000821415614f5857614f576140e2565b5b600182039050919050565b7f537472696e67733a20686578206c656e67746820696e73756666696369656e74600082015250565b6000614f9960208361331e565b9150614fa482614f63565b602082019050919050565b60006020820190508181036000830152614fc881614f8c565b905091905056fea2646970667358221220df33fc7d920e891196b210a6c7820fe055d3920d4ac85f83440a67dcc4a4874364736f6c634300080a003368747470733a2f2f6e66742e6172746273686f702e636f2e6b722f6d657461646174612f7b69647d2e6a736f6e",
  "immutableReferences": {},
  "source": "// SPDX-License-Identifier: MIT\npragma solidity ^0.8.0;\n\n\nimport \"@openzeppelin/contracts/token/ERC1155/presets/ERC1155PresetMinterPauser.sol\";\nimport \"@openzeppelin/contracts/access/Ownable.sol\";\n\ncontract ArtbCollection is ERC1155PresetMinterPauser, Ownable {\n  constructor()\n    ERC1155PresetMinterPauser(\"https://nft.artbshop.co.kr/metadata/{id}.json\")\n  {}\n}\n",
  "sourcePath": "/Users/gimseontae/Desktop/project/artb/contracts/ArtbCollection.sol",
  "compiler": {
    "name": "solc",
    "version": "0.8.10+commit.fc410830.Emscripten.clang"
  },
  "schemaVersion": "3.4.3",
  "updatedAt": "2021-11-15T13:06:54.795Z",
  "devdoc": {
    "kind": "dev",
    "methods": {
      "balanceOf(address,uint256)": {
        "details": "See {IERC1155-balanceOf}. Requirements: - `account` cannot be the zero address."
      },
      "balanceOfBatch(address[],uint256[])": {
        "details": "See {IERC1155-balanceOfBatch}. Requirements: - `accounts` and `ids` must have the same length."
      },
      "getRoleAdmin(bytes32)": {
        "details": "Returns the admin role that controls `role`. See {grantRole} and {revokeRole}. To change a role's admin, use {_setRoleAdmin}."
      },
      "getRoleMember(bytes32,uint256)": {
        "details": "Returns one of the accounts that have `role`. `index` must be a value between 0 and {getRoleMemberCount}, non-inclusive. Role bearers are not sorted in any particular way, and their ordering may change at any point. WARNING: When using {getRoleMember} and {getRoleMemberCount}, make sure you perform all queries on the same block. See the following https://forum.openzeppelin.com/t/iterating-over-elements-on-enumerableset-in-openzeppelin-contracts/2296[forum post] for more information."
      },
      "getRoleMemberCount(bytes32)": {
        "details": "Returns the number of accounts that have `role`. Can be used together with {getRoleMember} to enumerate all bearers of a role."
      },
      "grantRole(bytes32,address)": {
        "details": "Overload {grantRole} to track enumerable memberships"
      },
      "hasRole(bytes32,address)": {
        "details": "Returns `true` if `account` has been granted `role`."
      },
      "isApprovedForAll(address,address)": {
        "details": "See {IERC1155-isApprovedForAll}."
      },
      "mint(address,uint256,uint256,bytes)": {
        "details": "Creates `amount` new tokens for `to`, of token type `id`. See {ERC1155-_mint}. Requirements: - the caller must have the `MINTER_ROLE`."
      },
      "mintBatch(address,uint256[],uint256[],bytes)": {
        "details": "xref:ROOT:erc1155.adoc#batch-operations[Batched] variant of {mint}."
      },
      "owner()": {
        "details": "Returns the address of the current owner."
      },
      "pause()": {
        "details": "Pauses all token transfers. See {ERC1155Pausable} and {Pausable-_pause}. Requirements: - the caller must have the `PAUSER_ROLE`."
      },
      "paused()": {
        "details": "Returns true if the contract is paused, and false otherwise."
      },
      "renounceOwnership()": {
        "details": "Leaves the contract without owner. It will not be possible to call `onlyOwner` functions anymore. Can only be called by the current owner. NOTE: Renouncing ownership will leave the contract without an owner, thereby removing any functionality that is only available to the owner."
      },
      "renounceRole(bytes32,address)": {
        "details": "Overload {renounceRole} to track enumerable memberships"
      },
      "revokeRole(bytes32,address)": {
        "details": "Overload {revokeRole} to track enumerable memberships"
      },
      "safeBatchTransferFrom(address,address,uint256[],uint256[],bytes)": {
        "details": "See {IERC1155-safeBatchTransferFrom}."
      },
      "safeTransferFrom(address,address,uint256,uint256,bytes)": {
        "details": "See {IERC1155-safeTransferFrom}."
      },
      "setApprovalForAll(address,bool)": {
        "details": "See {IERC1155-setApprovalForAll}."
      },
      "supportsInterface(bytes4)": {
        "details": "See {IERC165-supportsInterface}."
      },
      "transferOwnership(address)": {
        "details": "Transfers ownership of the contract to a new account (`newOwner`). Can only be called by the current owner."
      },
      "unpause()": {
        "details": "Unpauses all token transfers. See {ERC1155Pausable} and {Pausable-_unpause}. Requirements: - the caller must have the `PAUSER_ROLE`."
      },
      "uri(uint256)": {
        "details": "See {IERC1155MetadataURI-uri}. This implementation returns the same URI for *all* token types. It relies on the token type ID substitution mechanism https://eips.ethereum.org/EIPS/eip-1155#metadata[defined in the EIP]. Clients calling this function must replace the `\\{id\\}` substring with the actual token type ID."
      }
    },
    "version": 1
  },
  "userdoc": {
    "kind": "user",
    "methods": {},
    "version": 1
  }
}