{
  "contractName": "CollectionSeller",
  "abi": [
    {
      "anonymous": false,
      "inputs": [
        {
          "indexed": true,
          "internalType": "address",
          "name": "previousOwner",
          "type": "address"
        },
        {
          "indexed": true,
          "internalType": "address",
          "name": "newOwner",
          "type": "address"
        }
      ],
      "name": "OwnershipTransferred",
      "type": "event"
    },
    {
      "anonymous": false,
      "inputs": [
        {
          "indexed": false,
          "internalType": "address",
          "name": "user",
          "type": "address"
        },
        {
          "indexed": false,
          "internalType": "uint256",
          "name": "amount",
          "type": "uint256"
        }
      ],
      "name": "bought",
      "type": "event"
    },
    {
      "anonymous": false,
      "inputs": [
        {
          "indexed": false,
          "internalType": "uint256",
          "name": "id",
          "type": "uint256"
        }
      ],
      "name": "registerCollection",
      "type": "event"
    },
    {
      "anonymous": false,
      "inputs": [
        {
          "indexed": false,
          "internalType": "uint256",
          "name": "id",
          "type": "uint256"
        }
      ],
      "name": "registerNewOne",
      "type": "event"
    },
    {
      "anonymous": false,
      "inputs": [
        {
          "indexed": false,
          "internalType": "uint256",
          "name": "id",
          "type": "uint256"
        }
      ],
      "name": "registerPayment",
      "type": "event"
    },
    {
      "inputs": [
        {
          "internalType": "uint8",
          "name": "",
          "type": "uint8"
        }
      ],
      "name": "Goods",
      "outputs": [
        {
          "components": [
            {
              "internalType": "contract IERC20",
              "name": "token",
              "type": "address"
            },
            {
              "internalType": "uint256",
              "name": "amount",
              "type": "uint256"
            },
            {
              "internalType": "address",
              "name": "receiver",
              "type": "address"
            }
          ],
          "internalType": "struct PaymentType",
          "name": "payment",
          "type": "tuple"
        },
        {
          "components": [
            {
              "internalType": "contract IERC1155",
              "name": "token",
              "type": "address"
            },
            {
              "internalType": "uint256",
              "name": "tokenId",
              "type": "uint256"
            },
            {
              "internalType": "uint256",
              "name": "QUANTITY",
              "type": "uint256"
            },
            {
              "internalType": "uint256",
              "name": "SOLD",
              "type": "uint256"
            },
            {
              "internalType": "uint256",
              "name": "INVENTORY",
              "type": "uint256"
            }
          ],
          "internalType": "struct CollectionType",
          "name": "collection",
          "type": "tuple"
        },
        {
          "internalType": "uint256",
          "name": "start_time",
          "type": "uint256"
        },
        {
          "internalType": "uint256",
          "name": "end_time",
          "type": "uint256"
        },
        {
          "internalType": "address",
          "name": "seller",
          "type": "address"
        },
        {
          "internalType": "bool",
          "name": "is_active",
          "type": "bool"
        }
      ],
      "stateMutability": "view",
      "type": "function",
      "constant": true
    },
    {
      "inputs": [
        {
          "internalType": "address",
          "name": "",
          "type": "address"
        }
      ],
      "name": "SellerWhitelist",
      "outputs": [
        {
          "internalType": "bool",
          "name": "",
          "type": "bool"
        }
      ],
      "stateMutability": "view",
      "type": "function",
      "constant": true
    },
    {
      "inputs": [],
      "name": "owner",
      "outputs": [
        {
          "internalType": "address",
          "name": "",
          "type": "address"
        }
      ],
      "stateMutability": "view",
      "type": "function",
      "constant": true
    },
    {
      "inputs": [],
      "name": "renounceOwnership",
      "outputs": [],
      "stateMutability": "nonpayable",
      "type": "function"
    },
    {
      "inputs": [
        {
          "internalType": "address",
          "name": "newOwner",
          "type": "address"
        }
      ],
      "name": "transferOwnership",
      "outputs": [],
      "stateMutability": "nonpayable",
      "type": "function"
    },
    {
      "inputs": [
        {
          "internalType": "uint8",
          "name": "id",
          "type": "uint8"
        },
        {
          "internalType": "uint256",
          "name": "amount",
          "type": "uint256"
        }
      ],
      "name": "buy",
      "outputs": [],
      "stateMutability": "payable",
      "type": "function",
      "payable": true
    },
    {
      "inputs": [
        {
          "internalType": "address",
          "name": "erc20_address",
          "type": "address"
        },
        {
          "internalType": "address",
          "name": "erc1155_address",
          "type": "address"
        }
      ],
      "name": "GoodsRegistration",
      "outputs": [
        {
          "internalType": "uint8",
          "name": "",
          "type": "uint8"
        }
      ],
      "stateMutability": "nonpayable",
      "type": "function"
    },
    {
      "inputs": [
        {
          "internalType": "uint8",
          "name": "id",
          "type": "uint8"
        },
        {
          "internalType": "uint256",
          "name": "tokenId",
          "type": "uint256"
        },
        {
          "internalType": "uint256",
          "name": "quantity",
          "type": "uint256"
        }
      ],
      "name": "GoodsRegCollection",
      "outputs": [],
      "stateMutability": "nonpayable",
      "type": "function"
    },
    {
      "inputs": [
        {
          "internalType": "uint8",
          "name": "id",
          "type": "uint8"
        },
        {
          "internalType": "uint256",
          "name": "amount",
          "type": "uint256"
        },
        {
          "internalType": "address",
          "name": "receiver",
          "type": "address"
        }
      ],
      "name": "GoodsRegPayment",
      "outputs": [],
      "stateMutability": "nonpayable",
      "type": "function"
    },
    {
      "inputs": [
        {
          "internalType": "uint8",
          "name": "id",
          "type": "uint8"
        },
        {
          "internalType": "uint256",
          "name": "start",
          "type": "uint256"
        },
        {
          "internalType": "uint256",
          "name": "end",
          "type": "uint256"
        }
      ],
      "name": "GoodsSetTime",
      "outputs": [],
      "stateMutability": "nonpayable",
      "type": "function"
    },
    {
      "inputs": [
        {
          "internalType": "uint8",
          "name": "id",
          "type": "uint8"
        },
        {
          "internalType": "bool",
          "name": "is_active",
          "type": "bool"
        }
      ],
      "name": "GoodsSetOpen",
      "outputs": [],
      "stateMutability": "nonpayable",
      "type": "function"
    },
    {
      "inputs": [
        {
          "internalType": "address",
          "name": "user",
          "type": "address"
        }
      ],
      "name": "addSeller",
      "outputs": [],
      "stateMutability": "nonpayable",
      "type": "function"
    },
    {
      "inputs": [
        {
          "internalType": "address",
          "name": "user",
          "type": "address"
        }
      ],
      "name": "removeSeller",
      "outputs": [],
      "stateMutability": "nonpayable",
      "type": "function"
    }
  ],
  "bytecode": "0x608060405234801561001057600080fd5b5061002d61002261003260201b60201c565b61003a60201b60201c565b6100fe565b600033905090565b60008060009054906101000a900473ffffffffffffffffffffffffffffffffffffffff169050816000806101000a81548173ffffffffffffffffffffffffffffffffffffffff021916908373ffffffffffffffffffffffffffffffffffffffff1602179055508173ffffffffffffffffffffffffffffffffffffffff168173ffffffffffffffffffffffffffffffffffffffff167f8be0079c531659141344cd1fd0a4f28419497f9722a3daafe3b4186f6b6457e060405160405180910390a35050565b6121cb806200010e6000396000f3fe6080604052600436106100c25760003560e01c8063ca47b9db1161007f578063e43b701f11610059578063e43b701f14610243578063e724f49b1461026c578063f2cca80f146102ae578063f2fde38b146102d7576100c2565b8063ca47b9db146101b4578063d93fabfa146101f1578063db62d6521461021a576100c2565b806362f791c0146100c7578063715018a6146100e35780637cb9cf54146100fa5780638da5cb5b14610123578063a76516781461014e578063b00a9d3814610177575b600080fd5b6100e160048036038101906100dc9190611687565b610300565b005b3480156100ef57600080fd5b506100f8610733565b005b34801561010657600080fd5b50610121600480360381019061011c9190611725565b6107bb565b005b34801561012f57600080fd5b50610138610892565b6040516101459190611761565b60405180910390f35b34801561015a57600080fd5b506101756004803603810190610170919061177c565b6108bb565b005b34801561018357600080fd5b5061019e600480360381019061019991906117cf565b610a8e565b6040516101ab919061181e565b60405180910390f35b3480156101c057600080fd5b506101db60048036038101906101d69190611725565b610cea565b6040516101e89190611854565b60405180910390f35b3480156101fd57600080fd5b5061021860048036038101906102139190611725565b610d0a565b005b34801561022657600080fd5b50610241600480360381019061023c919061186f565b610de1565b005b34801561024f57600080fd5b5061026a6004803603810190610265919061177c565b610fa5565b005b34801561027857600080fd5b50610293600480360381019061028e91906118c2565b611129565b6040516102a596959493929190611a46565b60405180910390f35b3480156102ba57600080fd5b506102d560048036038101906102d09190611ad8565b6112da565b005b3480156102e357600080fd5b506102fe60048036038101906102f99190611725565b61144f565b005b600160008360ff1660ff16815260200190815260200160002060080154600160008460ff1660ff1681526020019081526020016000206009015481421015801561034a5750804211155b610389576040517f08c379a000000000000000000000000000000000000000000000000000000000815260040161038090611b9b565b60405180910390fd5b600160008560ff1660ff168152602001908152602001600020600a0160149054906101000a900460ff166103f2576040517f08c379a00000000000000000000000000000000000000000000000000000000081526004016103e990611c07565b60405180910390fd5b82600160008660ff1660ff168152602001908152602001600020600301600401541015610454576040517f08c379a000000000000000000000000000000000000000000000000000000000815260040161044b90611c73565b60405180910390fd5b600160008560ff1660ff16815260200190815260200160002060000160000160009054906101000a900473ffffffffffffffffffffffffffffffffffffffff1673ffffffffffffffffffffffffffffffffffffffff166323b872dd33600160008860ff1660ff16815260200190815260200160002060000160020160009054906101000a900473ffffffffffffffffffffffffffffffffffffffff16600160008960ff1660ff168152602001908152602001600020600001600101548761051b9190611cc2565b6040518463ffffffff1660e01b815260040161053993929190611d1c565b6020604051808303816000875af1158015610558573d6000803e3d6000fd5b505050506040513d601f19601f8201168201806040525081019061057c9190611d68565b5082600160008660ff1660ff16815260200190815260200160002060030160030160008282546105ac9190611d95565b9250508190555082600160008660ff1660ff16815260200190815260200160002060030160040160008282546105e29190611deb565b92505081905550600160008560ff1660ff16815260200190815260200160002060030160000160009054906101000a900473ffffffffffffffffffffffffffffffffffffffff1673ffffffffffffffffffffffffffffffffffffffff1663f242432a600160008760ff1660ff168152602001908152602001600020600a0160009054906101000a900473ffffffffffffffffffffffffffffffffffffffff1633600160008960ff1660ff16815260200190815260200160002060030160010154876040518563ffffffff1660e01b81526004016106c29493929190611e7c565b600060405180830381600087803b1580156106dc57600080fd5b505af11580156106f0573d6000803e3d6000fd5b505050507f74f5fd5e58c3ec944ab8dbf077bf027876847cea1e7e828dd2a670d291b857fb3384604051610725929190611ed4565b60405180910390a150505050565b61073b611547565b73ffffffffffffffffffffffffffffffffffffffff16610759610892565b73ffffffffffffffffffffffffffffffffffffffff16146107af576040517f08c379a00000000000000000000000000000000000000000000000000000000081526004016107a690611f49565b60405180910390fd5b6107b9600061154f565b565b6107c3611547565b73ffffffffffffffffffffffffffffffffffffffff166107e1610892565b73ffffffffffffffffffffffffffffffffffffffff1614610837576040517f08c379a000000000000000000000000000000000000000000000000000000000815260040161082e90611f49565b60405180910390fd5b6001600260008373ffffffffffffffffffffffffffffffffffffffff1673ffffffffffffffffffffffffffffffffffffffff16815260200190815260200160002060006101000a81548160ff02191690831515021790555050565b60008060009054906101000a900473ffffffffffffffffffffffffffffffffffffffff16905090565b60011515600260003373ffffffffffffffffffffffffffffffffffffffff1673ffffffffffffffffffffffffffffffffffffffff16815260200190815260200160002060009054906101000a900460ff1615151461094e576040517f08c379a000000000000000000000000000000000000000000000000000000000815260040161094590611fdb565b60405180910390fd5b3373ffffffffffffffffffffffffffffffffffffffff16600160008560ff1660ff168152602001908152602001600020600a0160009054906101000a900473ffffffffffffffffffffffffffffffffffffffff1673ffffffffffffffffffffffffffffffffffffffff16146109f8576040517f08c379a00000000000000000000000000000000000000000000000000000000081526004016109ef9061206d565b60405180910390fd5b81600160008560ff1660ff1681526020019081526020016000206003016001018190555080600160008560ff1660ff168152602001908152602001600020600301600201819055506000600160008560ff1660ff1681526020019081526020016000206003016003018190555080600160008560ff1660ff16815260200190815260200160002060030160040181905550505050565b600060011515600260003373ffffffffffffffffffffffffffffffffffffffff1673ffffffffffffffffffffffffffffffffffffffff16815260200190815260200160002060009054906101000a900460ff16151514610b23576040517f08c379a0000000000000000000000000000000000000000000000000000000008152600401610b1a90611fdb565b60405180910390fd5b600080601481819054906101000a900460ff1680929190610b439061208d565b91906101000a81548160ff021916908360ff160217905550905083600160008360ff1660ff16815260200190815260200160002060000160000160006101000a81548173ffffffffffffffffffffffffffffffffffffffff021916908373ffffffffffffffffffffffffffffffffffffffff16021790555082600160008360ff1660ff16815260200190815260200160002060030160000160006101000a81548173ffffffffffffffffffffffffffffffffffffffff021916908373ffffffffffffffffffffffffffffffffffffffff1602179055506000600160008360ff1660ff168152602001908152602001600020600a0160146101000a81548160ff02191690831515021790555033600160008360ff1660ff168152602001908152602001600020600a0160006101000a81548173ffffffffffffffffffffffffffffffffffffffff021916908373ffffffffffffffffffffffffffffffffffffffff1602179055507fbf0515008c710f94f2cb64af3c4ce5155cf6080014045e0479a7471d8e99957b81604051610cd891906120e8565b60405180910390a18091505092915050565b60026020528060005260406000206000915054906101000a900460ff1681565b610d12611547565b73ffffffffffffffffffffffffffffffffffffffff16610d30610892565b73ffffffffffffffffffffffffffffffffffffffff1614610d86576040517f08c379a0000000000000000000000000000000000000000000000000000000008152600401610d7d90611f49565b60405180910390fd5b6001600260008373ffffffffffffffffffffffffffffffffffffffff1673ffffffffffffffffffffffffffffffffffffffff16815260200190815260200160002060006101000a81548160ff02191690831515021790555050565b60011515600260003373ffffffffffffffffffffffffffffffffffffffff1673ffffffffffffffffffffffffffffffffffffffff16815260200190815260200160002060009054906101000a900460ff16151514610e74576040517f08c379a0000000000000000000000000000000000000000000000000000000008152600401610e6b90611fdb565b60405180910390fd5b3373ffffffffffffffffffffffffffffffffffffffff16600160008560ff1660ff168152602001908152602001600020600a0160009054906101000a900473ffffffffffffffffffffffffffffffffffffffff1673ffffffffffffffffffffffffffffffffffffffff1614610f1e576040517f08c379a0000000000000000000000000000000000000000000000000000000008152600401610f159061206d565b60405180910390fd5b81600160008560ff1660ff1681526020019081526020016000206000016001018190555080600160008560ff1660ff16815260200190815260200160002060000160020160006101000a81548173ffffffffffffffffffffffffffffffffffffffff021916908373ffffffffffffffffffffffffffffffffffffffff160217905550505050565b60011515600260003373ffffffffffffffffffffffffffffffffffffffff1673ffffffffffffffffffffffffffffffffffffffff16815260200190815260200160002060009054906101000a900460ff16151514611038576040517f08c379a000000000000000000000000000000000000000000000000000000000815260040161102f90611fdb565b60405180910390fd5b3373ffffffffffffffffffffffffffffffffffffffff16600160008560ff1660ff168152602001908152602001600020600a0160009054906101000a900473ffffffffffffffffffffffffffffffffffffffff1673ffffffffffffffffffffffffffffffffffffffff16146110e2576040517f08c379a00000000000000000000000000000000000000000000000000000000081526004016110d99061206d565b60405180910390fd5b81600160008560ff1660ff1681526020019081526020016000206008018190555080600160008560ff1660ff16815260200190815260200160002060090181905550505050565b6001602052806000526040600020600091509050806000016040518060600160405290816000820160009054906101000a900473ffffffffffffffffffffffffffffffffffffffff1673ffffffffffffffffffffffffffffffffffffffff1673ffffffffffffffffffffffffffffffffffffffff168152602001600182015481526020016002820160009054906101000a900473ffffffffffffffffffffffffffffffffffffffff1673ffffffffffffffffffffffffffffffffffffffff1673ffffffffffffffffffffffffffffffffffffffff168152505090806003016040518060a00160405290816000820160009054906101000a900473ffffffffffffffffffffffffffffffffffffffff1673ffffffffffffffffffffffffffffffffffffffff1673ffffffffffffffffffffffffffffffffffffffff1681526020016001820154815260200160028201548152602001600382015481526020016004820154815250509080600801549080600901549080600a0160009054906101000a900473ffffffffffffffffffffffffffffffffffffffff169080600a0160149054906101000a900460ff16905086565b60011515600260003373ffffffffffffffffffffffffffffffffffffffff1673ffffffffffffffffffffffffffffffffffffffff16815260200190815260200160002060009054906101000a900460ff1615151461136d576040517f08c379a000000000000000000000000000000000000000000000000000000000815260040161136490611fdb565b60405180910390fd5b3373ffffffffffffffffffffffffffffffffffffffff16600160008460ff1660ff168152602001908152602001600020600a0160009054906101000a900473ffffffffffffffffffffffffffffffffffffffff1673ffffffffffffffffffffffffffffffffffffffff1614611417576040517f08c379a000000000000000000000000000000000000000000000000000000000815260040161140e9061206d565b60405180910390fd5b80600160008460ff1660ff168152602001908152602001600020600a0160146101000a81548160ff0219169083151502179055505050565b611457611547565b73ffffffffffffffffffffffffffffffffffffffff16611475610892565b73ffffffffffffffffffffffffffffffffffffffff16146114cb576040517f08c379a00000000000000000000000000000000000000000000000000000000081526004016114c290611f49565b60405180910390fd5b600073ffffffffffffffffffffffffffffffffffffffff168173ffffffffffffffffffffffffffffffffffffffff16141561153b576040517f08c379a000000000000000000000000000000000000000000000000000000000815260040161153290612175565b60405180910390fd5b6115448161154f565b50565b600033905090565b60008060009054906101000a900473ffffffffffffffffffffffffffffffffffffffff169050816000806101000a81548173ffffffffffffffffffffffffffffffffffffffff021916908373ffffffffffffffffffffffffffffffffffffffff1602179055508173ffffffffffffffffffffffffffffffffffffffff168173ffffffffffffffffffffffffffffffffffffffff167f8be0079c531659141344cd1fd0a4f28419497f9722a3daafe3b4186f6b6457e060405160405180910390a35050565b600080fd5b600060ff82169050919050565b61162e81611618565b811461163957600080fd5b50565b60008135905061164b81611625565b92915050565b6000819050919050565b61166481611651565b811461166f57600080fd5b50565b6000813590506116818161165b565b92915050565b6000806040838503121561169e5761169d611613565b5b60006116ac8582860161163c565b92505060206116bd85828601611672565b9150509250929050565b600073ffffffffffffffffffffffffffffffffffffffff82169050919050565b60006116f2826116c7565b9050919050565b611702816116e7565b811461170d57600080fd5b50565b60008135905061171f816116f9565b92915050565b60006020828403121561173b5761173a611613565b5b600061174984828501611710565b91505092915050565b61175b816116e7565b82525050565b60006020820190506117766000830184611752565b92915050565b60008060006060848603121561179557611794611613565b5b60006117a38682870161163c565b93505060206117b486828701611672565b92505060406117c586828701611672565b9150509250925092565b600080604083850312156117e6576117e5611613565b5b60006117f485828601611710565b925050602061180585828601611710565b9150509250929050565b61181881611618565b82525050565b6000602082019050611833600083018461180f565b92915050565b60008115159050919050565b61184e81611839565b82525050565b60006020820190506118696000830184611845565b92915050565b60008060006060848603121561188857611887611613565b5b60006118968682870161163c565b93505060206118a786828701611672565b92505060406118b886828701611710565b9150509250925092565b6000602082840312156118d8576118d7611613565b5b60006118e68482850161163c565b91505092915050565b6000819050919050565b600061191461190f61190a846116c7565b6118ef565b6116c7565b9050919050565b6000611926826118f9565b9050919050565b60006119388261191b565b9050919050565b6119488161192d565b82525050565b61195781611651565b82525050565b611966816116e7565b82525050565b606082016000820151611982600085018261193f565b506020820151611995602085018261194e565b5060408201516119a8604085018261195d565b50505050565b60006119b98261191b565b9050919050565b6119c9816119ae565b82525050565b60a0820160008201516119e560008501826119c0565b5060208201516119f8602085018261194e565b506040820151611a0b604085018261194e565b506060820151611a1e606085018261194e565b506080820151611a31608085018261194e565b50505050565b611a4081611651565b82525050565b600061018082019050611a5c600083018961196c565b611a6960608301886119cf565b611a77610100830187611a37565b611a85610120830186611a37565b611a93610140830185611752565b611aa1610160830184611845565b979650505050505050565b611ab581611839565b8114611ac057600080fd5b50565b600081359050611ad281611aac565b92915050565b60008060408385031215611aef57611aee611613565b5b6000611afd8582860161163c565b9250506020611b0e85828601611ac3565b9150509250929050565b600082825260208201905092915050565b7f5468652073616c6520686173206e6f74207374617274656420796574206f722060008201527f616c726561647920656e64000000000000000000000000000000000000000000602082015250565b6000611b85602b83611b18565b9150611b9082611b29565b604082019050919050565b60006020820190508181036000830152611bb481611b78565b9050919050565b7f546869732073616c65206973206e6f7420616374697665000000000000000000600082015250565b6000611bf1601783611b18565b9150611bfc82611bbb565b602082019050919050565b60006020820190508181036000830152611c2081611be4565b9050919050565b7f4e6f7420656e6f75676820696e76656e746f7279000000000000000000000000600082015250565b6000611c5d601483611b18565b9150611c6882611c27565b602082019050919050565b60006020820190508181036000830152611c8c81611c50565b9050919050565b7f4e487b7100000000000000000000000000000000000000000000000000000000600052601160045260246000fd5b6000611ccd82611651565b9150611cd883611651565b9250817fffffffffffffffffffffffffffffffffffffffffffffffffffffffffffffffff0483118215151615611d1157611d10611c93565b5b828202905092915050565b6000606082019050611d316000830186611752565b611d3e6020830185611752565b611d4b6040830184611a37565b949350505050565b600081519050611d6281611aac565b92915050565b600060208284031215611d7e57611d7d611613565b5b6000611d8c84828501611d53565b91505092915050565b6000611da082611651565b9150611dab83611651565b9250827fffffffffffffffffffffffffffffffffffffffffffffffffffffffffffffffff03821115611de057611ddf611c93565b5b828201905092915050565b6000611df682611651565b9150611e0183611651565b925082821015611e1457611e13611c93565b5b828203905092915050565b600082825260208201905092915050565b7f3078300000000000000000000000000000000000000000000000000000000000600082015250565b6000611e66600383611e1f565b9150611e7182611e30565b602082019050919050565b600060a082019050611e916000830187611752565b611e9e6020830186611752565b611eab6040830185611a37565b611eb86060830184611a37565b8181036080830152611ec981611e59565b905095945050505050565b6000604082019050611ee96000830185611752565b611ef66020830184611a37565b9392505050565b7f4f776e61626c653a2063616c6c6572206973206e6f7420746865206f776e6572600082015250565b6000611f33602083611b18565b9150611f3e82611efd565b602082019050919050565b60006020820190508181036000830152611f6281611f26565b9050919050565b7f4f6e6c792073656c6c65722063616e20706572666f726d20746869732061637460008201527f696f6e0000000000000000000000000000000000000000000000000000000000602082015250565b6000611fc5602383611b18565b9150611fd082611f69565b604082019050919050565b60006020820190508181036000830152611ff481611fb8565b9050919050565b7f596f7520617265206e6f74207468652073656c6c6572206f662074686973206960008201527f74656d0000000000000000000000000000000000000000000000000000000000602082015250565b6000612057602383611b18565b915061206282611ffb565b604082019050919050565b600060208201905081810360008301526120868161204a565b9050919050565b600061209882611618565b915060ff8214156120ac576120ab611c93565b5b600182019050919050565b60006120d26120cd6120c884611618565b6118ef565b611651565b9050919050565b6120e2816120b7565b82525050565b60006020820190506120fd60008301846120d9565b92915050565b7f4f776e61626c653a206e6577206f776e657220697320746865207a65726f206160008201527f6464726573730000000000000000000000000000000000000000000000000000602082015250565b600061215f602683611b18565b915061216a82612103565b604082019050919050565b6000602082019050818103600083015261218e81612152565b905091905056fea2646970667358221220e964a275e78e81dbd989a8247f91f7935a8b58c6c1f854654144c7ebd6db93a864736f6c634300080a0033",
  "immutableReferences": {},
  "source": "// SPDX-License-Identifier: MIT\npragma solidity ^0.8.0;\n\nimport \"@openzeppelin/contracts/access/Ownable.sol\";\nimport \"@openzeppelin/contracts/token/ERC20/IERC20.sol\";\nimport \"@openzeppelin/contracts/token/ERC1155/IERC1155.sol\";\n\n\n\nstruct PaymentType {\n    IERC20 token; // address of the payment Token \n    uint256 amount; // amount of the payment\n    address receiver; // address of the receiver\n}\n\nstruct CollectionType {\n  IERC1155 token; // NFT contract\n  uint256 tokenId; // tokenId of the NFT\n  uint256 QUANTITY; // Total quantity of this item\n  uint256 SOLD; // Total quantity of this item sold\n  uint256 INVENTORY; // Total quantity of this item in inventory\n}\n\nstruct SalesType {\n  PaymentType payment; // Payment information\n  CollectionType collection; // Collection information\n  uint256 start_time; // Sales start time\n  uint256 end_time; // Sales end time\n  address seller; // Seller address\n  bool is_active; // Is the sale active\n}\n\n\ncontract CollectionSeller is Ownable {\n  uint8 lastRegisterId; //\n  mapping(uint8 => SalesType) public Goods;\n  mapping(address => bool) public SellerWhitelist;\n\n  event bought(address user, uint256 amount);\n  event registerNewOne(uint256 id);\n  event registerCollection(uint256 id);\n  event registerPayment(uint256 id);\n\n  function buy(uint8 id, uint256 amount) public payable isOpen(Goods[id].start_time, Goods[id].end_time) {\n    require(Goods[id].is_active, \"This sale is not active\");\n    require(Goods[id].collection.INVENTORY >= amount, \"Not enough inventory\");\n\n    Goods[id].payment.token.transferFrom(msg.sender, Goods[id].payment.receiver, amount*Goods[id].payment.amount);\n\n    Goods[id].collection.SOLD += amount;\n    Goods[id].collection.INVENTORY -= amount;\n\n    Goods[id].collection.token.safeTransferFrom(Goods[id].seller, msg.sender, Goods[id].collection.tokenId, amount, \"0x0\");\n\n\n    emit bought(msg.sender, amount);\n  }\n\n  function GoodsRegistration(address erc20_address, address erc1155_address) public onlySeller returns(uint8) {\n    uint8 id = lastRegisterId++;\n\n    Goods[id].payment.token = IERC20(erc20_address);\n    Goods[id].collection.token = IERC1155(erc1155_address);\n    Goods[id].is_active = false;\n    Goods[id].seller = msg.sender;\n\n    emit registerNewOne(id);\n    return id;\n  }\n\n  function GoodsRegCollection(uint8 id, uint256 tokenId, uint256 quantity) public onlySeller {\n    require(Goods[id].seller == msg.sender, \"You are not the seller of this item\");\n\n\n    Goods[id].collection.tokenId = tokenId;\n    Goods[id].collection.QUANTITY = quantity;\n    Goods[id].collection.SOLD = 0;\n    Goods[id].collection.INVENTORY = quantity;\n  }\n\n  function GoodsRegPayment(uint8 id, uint256 amount, address receiver) public onlySeller {\n    require(Goods[id].seller == msg.sender, \"You are not the seller of this item\");\n\n    Goods[id].payment.amount = amount;\n    Goods[id].payment.receiver = receiver;\n  }\n\n  function GoodsSetTime(uint8 id, uint256 start, uint256 end) public onlySeller {\n    require(Goods[id].seller == msg.sender, \"You are not the seller of this item\");\n\n    Goods[id].start_time = start;\n    Goods[id].end_time = end;\n  }\n\n  function GoodsSetOpen(uint8 id, bool is_active) public onlySeller {\n    require(Goods[id].seller == msg.sender, \"You are not the seller of this item\");\n\n    Goods[id].is_active = is_active;\n  }\n\n\n  function addSeller(address user) public onlyOwner {\n    SellerWhitelist[user] = true;\n  }\n\n  function removeSeller(address user) public onlyOwner {\n    SellerWhitelist[user] = true;\n  }\n\n  modifier onlySeller() {\n    require(SellerWhitelist[msg.sender] == true, \"Only seller can perform this action\");\n    _;\n  }\n\n  modifier isOpen(uint256 from,uint256 to) {\n    require(\n      block.timestamp >= from && block.timestamp <= to,\n      \"The sale has not started yet or already end\"\n    );\n    _;\n  }\n}\n",
  "sourcePath": "/Users/gimseontae/Desktop/project/artb/contracts/CollectionSeller.sol",
  "compiler": {
    "name": "solc",
    "version": "0.8.10+commit.fc410830.Emscripten.clang"
  },
  "schemaVersion": "3.4.3",
  "updatedAt": "2021-11-15T10:01:18.835Z",
  "networkType": "ethereum",
  "devdoc": {
    "kind": "dev",
    "methods": {
      "owner()": {
        "details": "Returns the address of the current owner."
      },
      "renounceOwnership()": {
        "details": "Leaves the contract without owner. It will not be possible to call `onlyOwner` functions anymore. Can only be called by the current owner. NOTE: Renouncing ownership will leave the contract without an owner, thereby removing any functionality that is only available to the owner."
      },
      "transferOwnership(address)": {
        "details": "Transfers ownership of the contract to a new account (`newOwner`). Can only be called by the current owner."
      }
    },
    "version": 1
  },
  "userdoc": {
    "kind": "user",
    "methods": {},
    "version": 1
  }
}