{
  "contractName": "CollectionSeller",
  "abi": [
    {
      "anonymous": false,
      "inputs": [
        {
          "indexed": true,
          "internalType": "address",
          "name": "previousOwner",
          "type": "address"
        },
        {
          "indexed": true,
          "internalType": "address",
          "name": "newOwner",
          "type": "address"
        }
      ],
      "name": "OwnershipTransferred",
      "type": "event"
    },
    {
      "anonymous": false,
      "inputs": [
        {
          "indexed": false,
          "internalType": "address",
          "name": "user",
          "type": "address"
        },
        {
          "indexed": false,
          "internalType": "uint256",
          "name": "amount",
          "type": "uint256"
        }
      ],
      "name": "bought",
      "type": "event"
    },
    {
      "anonymous": false,
      "inputs": [
        {
          "indexed": false,
          "internalType": "uint256",
          "name": "id",
          "type": "uint256"
        }
      ],
      "name": "registerCollection",
      "type": "event"
    },
    {
      "anonymous": false,
      "inputs": [
        {
          "indexed": false,
          "internalType": "uint256",
          "name": "id",
          "type": "uint256"
        }
      ],
      "name": "registerNewOne",
      "type": "event"
    },
    {
      "anonymous": false,
      "inputs": [
        {
          "indexed": false,
          "internalType": "uint256",
          "name": "id",
          "type": "uint256"
        }
      ],
      "name": "registerPayment",
      "type": "event"
    },
    {
      "inputs": [
        {
          "internalType": "uint256",
          "name": "",
          "type": "uint256"
        }
      ],
      "name": "Goods",
      "outputs": [
        {
          "components": [
            {
              "internalType": "contract IERC20",
              "name": "token",
              "type": "address"
            },
            {
              "internalType": "uint256",
              "name": "amount",
              "type": "uint256"
            },
            {
              "internalType": "address",
              "name": "receiver",
              "type": "address"
            }
          ],
          "internalType": "struct PaymentType",
          "name": "payment",
          "type": "tuple"
        },
        {
          "components": [
            {
              "internalType": "contract IERC1155",
              "name": "token",
              "type": "address"
            },
            {
              "internalType": "uint256",
              "name": "tokenId",
              "type": "uint256"
            },
            {
              "internalType": "uint256",
              "name": "QUANTITY",
              "type": "uint256"
            },
            {
              "internalType": "uint256",
              "name": "SOLD",
              "type": "uint256"
            },
            {
              "internalType": "uint256",
              "name": "INVENTORY",
              "type": "uint256"
            }
          ],
          "internalType": "struct CollectionType",
          "name": "collection",
          "type": "tuple"
        },
        {
          "internalType": "uint256",
          "name": "start_time",
          "type": "uint256"
        },
        {
          "internalType": "uint256",
          "name": "end_time",
          "type": "uint256"
        },
        {
          "internalType": "address",
          "name": "seller",
          "type": "address"
        },
        {
          "internalType": "bool",
          "name": "is_active",
          "type": "bool"
        }
      ],
      "stateMutability": "view",
      "type": "function",
      "constant": true
    },
    {
      "inputs": [
        {
          "internalType": "address",
          "name": "",
          "type": "address"
        }
      ],
      "name": "SellerWhitelist",
      "outputs": [
        {
          "internalType": "bool",
          "name": "",
          "type": "bool"
        }
      ],
      "stateMutability": "view",
      "type": "function",
      "constant": true
    },
    {
      "inputs": [],
      "name": "owner",
      "outputs": [
        {
          "internalType": "address",
          "name": "",
          "type": "address"
        }
      ],
      "stateMutability": "view",
      "type": "function",
      "constant": true
    },
    {
      "inputs": [],
      "name": "renounceOwnership",
      "outputs": [],
      "stateMutability": "nonpayable",
      "type": "function"
    },
    {
      "inputs": [
        {
          "internalType": "address",
          "name": "newOwner",
          "type": "address"
        }
      ],
      "name": "transferOwnership",
      "outputs": [],
      "stateMutability": "nonpayable",
      "type": "function"
    },
    {
      "inputs": [
        {
          "internalType": "uint256",
          "name": "id",
          "type": "uint256"
        },
        {
          "internalType": "uint256",
          "name": "amount",
          "type": "uint256"
        }
      ],
      "name": "buy",
      "outputs": [],
      "stateMutability": "payable",
      "type": "function",
      "payable": true
    },
    {
      "inputs": [
        {
          "internalType": "address",
          "name": "erc20_address",
          "type": "address"
        },
        {
          "internalType": "address",
          "name": "erc1155_address",
          "type": "address"
        }
      ],
      "name": "GoodsRegistration",
      "outputs": [
        {
          "internalType": "uint256",
          "name": "",
          "type": "uint256"
        }
      ],
      "stateMutability": "nonpayable",
      "type": "function"
    },
    {
      "inputs": [
        {
          "internalType": "uint256",
          "name": "id",
          "type": "uint256"
        },
        {
          "internalType": "uint256",
          "name": "tokenId",
          "type": "uint256"
        },
        {
          "internalType": "uint256",
          "name": "quantity",
          "type": "uint256"
        }
      ],
      "name": "GoodsRegCollection",
      "outputs": [],
      "stateMutability": "nonpayable",
      "type": "function"
    },
    {
      "inputs": [
        {
          "internalType": "uint256",
          "name": "id",
          "type": "uint256"
        },
        {
          "internalType": "uint256",
          "name": "amount",
          "type": "uint256"
        },
        {
          "internalType": "address",
          "name": "receiver",
          "type": "address"
        }
      ],
      "name": "GoodsRegPayment",
      "outputs": [],
      "stateMutability": "nonpayable",
      "type": "function"
    },
    {
      "inputs": [
        {
          "internalType": "uint256",
          "name": "id",
          "type": "uint256"
        },
        {
          "internalType": "uint256",
          "name": "start",
          "type": "uint256"
        },
        {
          "internalType": "uint256",
          "name": "end",
          "type": "uint256"
        }
      ],
      "name": "GoodsSetTime",
      "outputs": [],
      "stateMutability": "nonpayable",
      "type": "function"
    },
    {
      "inputs": [
        {
          "internalType": "uint256",
          "name": "id",
          "type": "uint256"
        },
        {
          "internalType": "bool",
          "name": "is_active",
          "type": "bool"
        }
      ],
      "name": "GoodsSetOpen",
      "outputs": [],
      "stateMutability": "nonpayable",
      "type": "function"
    },
    {
      "inputs": [
        {
          "internalType": "address",
          "name": "user",
          "type": "address"
        }
      ],
      "name": "addSeller",
      "outputs": [],
      "stateMutability": "nonpayable",
      "type": "function"
    },
    {
      "inputs": [
        {
          "internalType": "address",
          "name": "user",
          "type": "address"
        }
      ],
      "name": "removeSeller",
      "outputs": [],
      "stateMutability": "nonpayable",
      "type": "function"
    }
  ],
  "bytecode": "0x608060405234801561001057600080fd5b5061002d61002261003260201b60201c565b61003a60201b60201c565b6100fe565b600033905090565b60008060009054906101000a900473ffffffffffffffffffffffffffffffffffffffff169050816000806101000a81548173ffffffffffffffffffffffffffffffffffffffff021916908373ffffffffffffffffffffffffffffffffffffffff1602179055508173ffffffffffffffffffffffffffffffffffffffff168173ffffffffffffffffffffffffffffffffffffffff167f8be0079c531659141344cd1fd0a4f28419497f9722a3daafe3b4186f6b6457e060405160405180910390a35050565b612138806200010e6000396000f3fe6080604052600436106100c25760003560e01c8063b00a9d381161007f578063d127adb711610059578063d127adb714610250578063d6febde814610292578063d93fabfa146102ae578063f2fde38b146102d7576100c2565b8063b00a9d38146101ad578063b7d57e64146101ea578063ca47b9db14610213576100c2565b806308c64505146100c757806346a7a0dd146100f0578063715018a6146101195780637cb9cf54146101305780638cf4521c146101595780638da5cb5b14610182575b600080fd5b3480156100d357600080fd5b506100ee60048036038101906100e991906115c4565b610300565b005b3480156100fc57600080fd5b506101176004803603810190610112919061164f565b610472565b005b34801561012557600080fd5b5061012e6105db565b005b34801561013c57600080fd5b50610157600480360381019061015291906116ed565b610663565b005b34801561016557600080fd5b50610180600480360381019061017b919061171a565b61073a565b005b34801561018e57600080fd5b506101976108ec565b6040516101a4919061177c565b60405180910390f35b3480156101b957600080fd5b506101d460048036038101906101cf9190611797565b610915565b6040516101e191906117e6565b60405180910390f35b3480156101f657600080fd5b50610211600480360381019061020c91906115c4565b610b3a565b005b34801561021f57600080fd5b5061023a600480360381019061023591906116ed565b610cef565b6040516102479190611810565b60405180910390f35b34801561025c57600080fd5b506102776004803603810190610272919061182b565b610d0f565b604051610289969594939291906119a0565b60405180910390f35b6102ac60048036038101906102a79190611a06565b610ec0565b005b3480156102ba57600080fd5b506102d560048036038101906102d091906116ed565b6112ee565b005b3480156102e357600080fd5b506102fe60048036038101906102f991906116ed565b6113c5565b005b60011515600360003373ffffffffffffffffffffffffffffffffffffffff1673ffffffffffffffffffffffffffffffffffffffff16815260200190815260200160002060009054906101000a900460ff16151514610393576040517f08c379a000000000000000000000000000000000000000000000000000000000815260040161038a90611ac9565b60405180910390fd5b3373ffffffffffffffffffffffffffffffffffffffff1660026000858152602001908152602001600020600a0160009054906101000a900473ffffffffffffffffffffffffffffffffffffffff1673ffffffffffffffffffffffffffffffffffffffff1614610437576040517f08c379a000000000000000000000000000000000000000000000000000000000815260040161042e90611b5b565b60405180910390fd5b816002600085815260200190815260200160002060080181905550806002600085815260200190815260200160002060090181905550505050565b60011515600360003373ffffffffffffffffffffffffffffffffffffffff1673ffffffffffffffffffffffffffffffffffffffff16815260200190815260200160002060009054906101000a900460ff16151514610505576040517f08c379a00000000000000000000000000000000000000000000000000000000081526004016104fc90611ac9565b60405180910390fd5b3373ffffffffffffffffffffffffffffffffffffffff1660026000848152602001908152602001600020600a0160009054906101000a900473ffffffffffffffffffffffffffffffffffffffff1673ffffffffffffffffffffffffffffffffffffffff16146105a9576040517f08c379a00000000000000000000000000000000000000000000000000000000081526004016105a090611b5b565b60405180910390fd5b8060026000848152602001908152602001600020600a0160146101000a81548160ff0219169083151502179055505050565b6105e36114bd565b73ffffffffffffffffffffffffffffffffffffffff166106016108ec565b73ffffffffffffffffffffffffffffffffffffffff1614610657576040517f08c379a000000000000000000000000000000000000000000000000000000000815260040161064e90611bc7565b60405180910390fd5b61066160006114c5565b565b61066b6114bd565b73ffffffffffffffffffffffffffffffffffffffff166106896108ec565b73ffffffffffffffffffffffffffffffffffffffff16146106df576040517f08c379a00000000000000000000000000000000000000000000000000000000081526004016106d690611bc7565b60405180910390fd5b6001600360008373ffffffffffffffffffffffffffffffffffffffff1673ffffffffffffffffffffffffffffffffffffffff16815260200190815260200160002060006101000a81548160ff02191690831515021790555050565b60011515600360003373ffffffffffffffffffffffffffffffffffffffff1673ffffffffffffffffffffffffffffffffffffffff16815260200190815260200160002060009054906101000a900460ff161515146107cd576040517f08c379a00000000000000000000000000000000000000000000000000000000081526004016107c490611ac9565b60405180910390fd5b3373ffffffffffffffffffffffffffffffffffffffff1660026000858152602001908152602001600020600a0160009054906101000a900473ffffffffffffffffffffffffffffffffffffffff1673ffffffffffffffffffffffffffffffffffffffff1614610871576040517f08c379a000000000000000000000000000000000000000000000000000000000815260040161086890611b5b565b60405180910390fd5b816002600085815260200190815260200160002060000160010181905550806002600085815260200190815260200160002060000160020160006101000a81548173ffffffffffffffffffffffffffffffffffffffff021916908373ffffffffffffffffffffffffffffffffffffffff160217905550505050565b60008060009054906101000a900473ffffffffffffffffffffffffffffffffffffffff16905090565b600060011515600360003373ffffffffffffffffffffffffffffffffffffffff1673ffffffffffffffffffffffffffffffffffffffff16815260200190815260200160002060009054906101000a900460ff161515146109aa576040517f08c379a00000000000000000000000000000000000000000000000000000000081526004016109a190611ac9565b60405180910390fd5b6000600160008154809291906109bf90611c16565b919050559050836002600083815260200190815260200160002060000160000160006101000a81548173ffffffffffffffffffffffffffffffffffffffff021916908373ffffffffffffffffffffffffffffffffffffffff160217905550826002600083815260200190815260200160002060030160000160006101000a81548173ffffffffffffffffffffffffffffffffffffffff021916908373ffffffffffffffffffffffffffffffffffffffff160217905550600060026000838152602001908152602001600020600a0160146101000a81548160ff0219169083151502179055503360026000838152602001908152602001600020600a0160006101000a81548173ffffffffffffffffffffffffffffffffffffffff021916908373ffffffffffffffffffffffffffffffffffffffff1602179055507fbf0515008c710f94f2cb64af3c4ce5155cf6080014045e0479a7471d8e99957b81604051610b2891906117e6565b60405180910390a18091505092915050565b60011515600360003373ffffffffffffffffffffffffffffffffffffffff1673ffffffffffffffffffffffffffffffffffffffff16815260200190815260200160002060009054906101000a900460ff16151514610bcd576040517f08c379a0000000000000000000000000000000000000000000000000000000008152600401610bc490611ac9565b60405180910390fd5b3373ffffffffffffffffffffffffffffffffffffffff1660026000858152602001908152602001600020600a0160009054906101000a900473ffffffffffffffffffffffffffffffffffffffff1673ffffffffffffffffffffffffffffffffffffffff1614610c71576040517f08c379a0000000000000000000000000000000000000000000000000000000008152600401610c6890611b5b565b60405180910390fd5b81600260008581526020019081526020016000206003016001018190555080600260008581526020019081526020016000206003016002018190555060006002600085815260200190815260200160002060030160030181905550806002600085815260200190815260200160002060030160040181905550505050565b60036020528060005260406000206000915054906101000a900460ff1681565b6002602052806000526040600020600091509050806000016040518060600160405290816000820160009054906101000a900473ffffffffffffffffffffffffffffffffffffffff1673ffffffffffffffffffffffffffffffffffffffff1673ffffffffffffffffffffffffffffffffffffffff168152602001600182015481526020016002820160009054906101000a900473ffffffffffffffffffffffffffffffffffffffff1673ffffffffffffffffffffffffffffffffffffffff1673ffffffffffffffffffffffffffffffffffffffff168152505090806003016040518060a00160405290816000820160009054906101000a900473ffffffffffffffffffffffffffffffffffffffff1673ffffffffffffffffffffffffffffffffffffffff1673ffffffffffffffffffffffffffffffffffffffff1681526020016001820154815260200160028201548152602001600382015481526020016004820154815250509080600801549080600901549080600a0160009054906101000a900473ffffffffffffffffffffffffffffffffffffffff169080600a0160149054906101000a900460ff16905086565b60026000838152602001908152602001600020600801546002600084815260200190815260200160002060090154814210158015610efe5750804211155b610f3d576040517f08c379a0000000000000000000000000000000000000000000000000000000008152600401610f3490611cd1565b60405180910390fd5b60026000858152602001908152602001600020600a0160149054906101000a900460ff16610fa0576040517f08c379a0000000000000000000000000000000000000000000000000000000008152600401610f9790611d3d565b60405180910390fd5b8260026000868152602001908152602001600020600301600401541015610ffc576040517f08c379a0000000000000000000000000000000000000000000000000000000008152600401610ff390611da9565b60405180910390fd5b6000831161103f576040517f08c379a000000000000000000000000000000000000000000000000000000000815260040161103690611e15565b60405180910390fd5b6002600085815260200190815260200160002060000160000160009054906101000a900473ffffffffffffffffffffffffffffffffffffffff1673ffffffffffffffffffffffffffffffffffffffff166323b872dd336002600088815260200190815260200160002060000160020160009054906101000a900473ffffffffffffffffffffffffffffffffffffffff166002600089815260200190815260200160002060000160010154876110f49190611e35565b6040518463ffffffff1660e01b815260040161111293929190611e8f565b6020604051808303816000875af1158015611131573d6000803e3d6000fd5b505050506040513d601f19601f820116820180604052508101906111559190611edb565b508260026000868152602001908152602001600020600301600301600082825461117f9190611f08565b92505081905550826002600086815260200190815260200160002060030160040160008282546111af9190611f5e565b925050819055506002600085815260200190815260200160002060030160000160009054906101000a900473ffffffffffffffffffffffffffffffffffffffff1673ffffffffffffffffffffffffffffffffffffffff1663f242432a60026000878152602001908152602001600020600a0160009054906101000a900473ffffffffffffffffffffffffffffffffffffffff16336002600089815260200190815260200160002060030160010154876040518563ffffffff1660e01b815260040161127d9493929190611fef565b600060405180830381600087803b15801561129757600080fd5b505af11580156112ab573d6000803e3d6000fd5b505050507f74f5fd5e58c3ec944ab8dbf077bf027876847cea1e7e828dd2a670d291b857fb33846040516112e0929190612047565b60405180910390a150505050565b6112f66114bd565b73ffffffffffffffffffffffffffffffffffffffff166113146108ec565b73ffffffffffffffffffffffffffffffffffffffff161461136a576040517f08c379a000000000000000000000000000000000000000000000000000000000815260040161136190611bc7565b60405180910390fd5b6001600360008373ffffffffffffffffffffffffffffffffffffffff1673ffffffffffffffffffffffffffffffffffffffff16815260200190815260200160002060006101000a81548160ff02191690831515021790555050565b6113cd6114bd565b73ffffffffffffffffffffffffffffffffffffffff166113eb6108ec565b73ffffffffffffffffffffffffffffffffffffffff1614611441576040517f08c379a000000000000000000000000000000000000000000000000000000000815260040161143890611bc7565b60405180910390fd5b600073ffffffffffffffffffffffffffffffffffffffff168173ffffffffffffffffffffffffffffffffffffffff1614156114b1576040517f08c379a00000000000000000000000000000000000000000000000000000000081526004016114a8906120e2565b60405180910390fd5b6114ba816114c5565b50565b600033905090565b60008060009054906101000a900473ffffffffffffffffffffffffffffffffffffffff169050816000806101000a81548173ffffffffffffffffffffffffffffffffffffffff021916908373ffffffffffffffffffffffffffffffffffffffff1602179055508173ffffffffffffffffffffffffffffffffffffffff168173ffffffffffffffffffffffffffffffffffffffff167f8be0079c531659141344cd1fd0a4f28419497f9722a3daafe3b4186f6b6457e060405160405180910390a35050565b600080fd5b6000819050919050565b6115a18161158e565b81146115ac57600080fd5b50565b6000813590506115be81611598565b92915050565b6000806000606084860312156115dd576115dc611589565b5b60006115eb868287016115af565b93505060206115fc868287016115af565b925050604061160d868287016115af565b9150509250925092565b60008115159050919050565b61162c81611617565b811461163757600080fd5b50565b60008135905061164981611623565b92915050565b6000806040838503121561166657611665611589565b5b6000611674858286016115af565b92505060206116858582860161163a565b9150509250929050565b600073ffffffffffffffffffffffffffffffffffffffff82169050919050565b60006116ba8261168f565b9050919050565b6116ca816116af565b81146116d557600080fd5b50565b6000813590506116e7816116c1565b92915050565b60006020828403121561170357611702611589565b5b6000611711848285016116d8565b91505092915050565b60008060006060848603121561173357611732611589565b5b6000611741868287016115af565b9350506020611752868287016115af565b9250506040611763868287016116d8565b9150509250925092565b611776816116af565b82525050565b6000602082019050611791600083018461176d565b92915050565b600080604083850312156117ae576117ad611589565b5b60006117bc858286016116d8565b92505060206117cd858286016116d8565b9150509250929050565b6117e08161158e565b82525050565b60006020820190506117fb60008301846117d7565b92915050565b61180a81611617565b82525050565b60006020820190506118256000830184611801565b92915050565b60006020828403121561184157611840611589565b5b600061184f848285016115af565b91505092915050565b6000819050919050565b600061187d6118786118738461168f565b611858565b61168f565b9050919050565b600061188f82611862565b9050919050565b60006118a182611884565b9050919050565b6118b181611896565b82525050565b6118c08161158e565b82525050565b6118cf816116af565b82525050565b6060820160008201516118eb60008501826118a8565b5060208201516118fe60208501826118b7565b50604082015161191160408501826118c6565b50505050565b600061192282611884565b9050919050565b61193281611917565b82525050565b60a08201600082015161194e6000850182611929565b50602082015161196160208501826118b7565b50604082015161197460408501826118b7565b50606082015161198760608501826118b7565b50608082015161199a60808501826118b7565b50505050565b6000610180820190506119b660008301896118d5565b6119c36060830188611938565b6119d16101008301876117d7565b6119df6101208301866117d7565b6119ed61014083018561176d565b6119fb610160830184611801565b979650505050505050565b60008060408385031215611a1d57611a1c611589565b5b6000611a2b858286016115af565b9250506020611a3c858286016115af565b9150509250929050565b600082825260208201905092915050565b7f4f6e6c792073656c6c65722063616e20706572666f726d20746869732061637460008201527f696f6e0000000000000000000000000000000000000000000000000000000000602082015250565b6000611ab3602383611a46565b9150611abe82611a57565b604082019050919050565b60006020820190508181036000830152611ae281611aa6565b9050919050565b7f596f7520617265206e6f74207468652073656c6c6572206f662074686973206960008201527f74656d0000000000000000000000000000000000000000000000000000000000602082015250565b6000611b45602383611a46565b9150611b5082611ae9565b604082019050919050565b60006020820190508181036000830152611b7481611b38565b9050919050565b7f4f776e61626c653a2063616c6c6572206973206e6f7420746865206f776e6572600082015250565b6000611bb1602083611a46565b9150611bbc82611b7b565b602082019050919050565b60006020820190508181036000830152611be081611ba4565b9050919050565b7f4e487b7100000000000000000000000000000000000000000000000000000000600052601160045260246000fd5b6000611c218261158e565b91507fffffffffffffffffffffffffffffffffffffffffffffffffffffffffffffffff821415611c5457611c53611be7565b5b600182019050919050565b7f5468652073616c6520686173206e6f74207374617274656420796574206f722060008201527f616c726561647920656e64000000000000000000000000000000000000000000602082015250565b6000611cbb602b83611a46565b9150611cc682611c5f565b604082019050919050565b60006020820190508181036000830152611cea81611cae565b9050919050565b7f546869732073616c65206973206e6f7420616374697665000000000000000000600082015250565b6000611d27601783611a46565b9150611d3282611cf1565b602082019050919050565b60006020820190508181036000830152611d5681611d1a565b9050919050565b7f4e6f7420656e6f75676820696e76656e746f7279000000000000000000000000600082015250565b6000611d93601483611a46565b9150611d9e82611d5d565b602082019050919050565b60006020820190508181036000830152611dc281611d86565b9050919050565b7f416d6f756e74206d7573742062652067726561746572207468616e2030000000600082015250565b6000611dff601d83611a46565b9150611e0a82611dc9565b602082019050919050565b60006020820190508181036000830152611e2e81611df2565b9050919050565b6000611e408261158e565b9150611e4b8361158e565b9250817fffffffffffffffffffffffffffffffffffffffffffffffffffffffffffffffff0483118215151615611e8457611e83611be7565b5b828202905092915050565b6000606082019050611ea4600083018661176d565b611eb1602083018561176d565b611ebe60408301846117d7565b949350505050565b600081519050611ed581611623565b92915050565b600060208284031215611ef157611ef0611589565b5b6000611eff84828501611ec6565b91505092915050565b6000611f138261158e565b9150611f1e8361158e565b9250827fffffffffffffffffffffffffffffffffffffffffffffffffffffffffffffffff03821115611f5357611f52611be7565b5b828201905092915050565b6000611f698261158e565b9150611f748361158e565b925082821015611f8757611f86611be7565b5b828203905092915050565b600082825260208201905092915050565b7f3078300000000000000000000000000000000000000000000000000000000000600082015250565b6000611fd9600383611f92565b9150611fe482611fa3565b602082019050919050565b600060a082019050612004600083018761176d565b612011602083018661176d565b61201e60408301856117d7565b61202b60608301846117d7565b818103608083015261203c81611fcc565b905095945050505050565b600060408201905061205c600083018561176d565b61206960208301846117d7565b9392505050565b7f4f776e61626c653a206e6577206f776e657220697320746865207a65726f206160008201527f6464726573730000000000000000000000000000000000000000000000000000602082015250565b60006120cc602683611a46565b91506120d782612070565b604082019050919050565b600060208201905081810360008301526120fb816120bf565b905091905056fea264697066735822122070c818eae0c57ec26c3e9a755ea7f79e5c718359e12fc7d07ca416f01736281764736f6c634300080a0033",
  "immutableReferences": {},
  "source": "// SPDX-License-Identifier: MIT\npragma solidity ^0.8.0;\n\nimport \"@openzeppelin/contracts/access/Ownable.sol\";\nimport \"@openzeppelin/contracts/token/ERC20/IERC20.sol\";\nimport \"@openzeppelin/contracts/token/ERC1155/IERC1155.sol\";\n\n\n\nstruct PaymentType {\n    IERC20 token; // address of the payment Token \n    uint256 amount; // amount of the payment\n    address receiver; // address of the receiver\n}\n\nstruct CollectionType {\n  IERC1155 token; // NFT contract\n  uint256 tokenId; // tokenId of the NFT\n  uint256 QUANTITY; // Total quantity of this item\n  uint256 SOLD; // Total quantity of this item sold\n  uint256 INVENTORY; // Total quantity of this item in inventory\n}\n\nstruct SalesType {\n  PaymentType payment; // Payment information\n  CollectionType collection; // Collection information\n  uint256 start_time; // Sales start time\n  uint256 end_time; // Sales end time\n  address seller; // Seller address\n  bool is_active; // Is the sale active\n}\n\n\ncontract CollectionSeller is Ownable {\n  uint256 lastRegisterId; //\n  mapping(uint256 => SalesType) public Goods;\n  mapping(address => bool) public SellerWhitelist;\n\n  event bought(address user, uint256 amount);\n  event registerNewOne(uint256 id);\n  event registerCollection(uint256 id);\n  event registerPayment(uint256 id);\n\n  function buy(uint256 id, uint256 amount) public payable isOpen(Goods[id].start_time, Goods[id].end_time) {\n    require(Goods[id].is_active, \"This sale is not active\");\n    require(Goods[id].collection.INVENTORY >= amount, \"Not enough inventory\");\n    require(amount > 0, \"Amount must be greater than 0\");\n\n    Goods[id].payment.token.transferFrom(msg.sender, Goods[id].payment.receiver, amount*Goods[id].payment.amount);\n\n    Goods[id].collection.SOLD += amount;\n    Goods[id].collection.INVENTORY -= amount;\n\n    Goods[id].collection.token.safeTransferFrom(Goods[id].seller, msg.sender, Goods[id].collection.tokenId, amount, \"0x0\");\n\n\n    emit bought(msg.sender, amount);\n  }\n\n  function GoodsRegistration(address erc20_address, address erc1155_address) public onlySeller returns(uint256) {\n    uint256 id = lastRegisterId++;\n\n    Goods[id].payment.token = IERC20(erc20_address);\n    Goods[id].collection.token = IERC1155(erc1155_address);\n    Goods[id].is_active = false;\n    Goods[id].seller = msg.sender;\n\n    emit registerNewOne(id);\n    return id;\n  }\n\n  function GoodsRegCollection(uint256 id, uint256 tokenId, uint256 quantity) public onlySeller {\n    require(Goods[id].seller == msg.sender, \"You are not the seller of this item\");\n\n\n    Goods[id].collection.tokenId = tokenId;\n    Goods[id].collection.QUANTITY = quantity;\n    Goods[id].collection.SOLD = 0;\n    Goods[id].collection.INVENTORY = quantity;\n  }\n\n  function GoodsRegPayment(uint256 id, uint256 amount, address receiver) public onlySeller {\n    require(Goods[id].seller == msg.sender, \"You are not the seller of this item\");\n\n    Goods[id].payment.amount = amount;\n    Goods[id].payment.receiver = receiver;\n  }\n\n  function GoodsSetTime(uint256 id, uint256 start, uint256 end) public onlySeller {\n    require(Goods[id].seller == msg.sender, \"You are not the seller of this item\");\n\n    Goods[id].start_time = start;\n    Goods[id].end_time = end;\n  }\n\n  function GoodsSetOpen(uint256 id, bool is_active) public onlySeller {\n    require(Goods[id].seller == msg.sender, \"You are not the seller of this item\");\n\n    Goods[id].is_active = is_active;\n  }\n\n\n  function addSeller(address user) public onlyOwner {\n    SellerWhitelist[user] = true;\n  }\n\n  function removeSeller(address user) public onlyOwner {\n    SellerWhitelist[user] = true;\n  }\n\n  modifier onlySeller() {\n    require(SellerWhitelist[msg.sender] == true, \"Only seller can perform this action\");\n    _;\n  }\n\n  modifier isOpen(uint256 from,uint256 to) {\n    require(\n      block.timestamp >= from && block.timestamp <= to,\n      \"The sale has not started yet or already end\"\n    );\n    _;\n  }\n}\n",
  "sourcePath": "/Users/humblefirm/Documents/GitHub/artb/contracts/CollectionSeller.sol",
  "compiler": {
    "name": "solc",
    "version": "0.8.10+commit.fc410830.Emscripten.clang"
  },
  "schemaVersion": "3.4.3",
  "updatedAt": "2021-11-16T06:59:16.937Z",
  "networkType": "ethereum",
  "devdoc": {
    "kind": "dev",
    "methods": {
      "owner()": {
        "details": "Returns the address of the current owner."
      },
      "renounceOwnership()": {
        "details": "Leaves the contract without owner. It will not be possible to call `onlyOwner` functions anymore. Can only be called by the current owner. NOTE: Renouncing ownership will leave the contract without an owner, thereby removing any functionality that is only available to the owner."
      },
      "transferOwnership(address)": {
        "details": "Transfers ownership of the contract to a new account (`newOwner`). Can only be called by the current owner."
      }
    },
    "version": 1
  },
  "userdoc": {
    "kind": "user",
    "methods": {},
    "version": 1
  }
}